:020000040800F2
:100000005804002001010008C90D0008C10D0008B6
:10001000C50D00086D010008290E00080000000051
:10002000000000000000000000000000D10D0008EA
:100030007101000800000000CD0D0008D50D00087A
:100040001B0100081B0100081B0100081B01000820
:100050001B0100081B0100081B0100081B01000810
:100060001B0100081B0100081B0100081B01000800
:100070001B0100081B0100081B0100081B010008F0
:100080001B0100081B0100081B0100081B010008E0
:100090001B0100081B0100081B0100081B010008D0
:1000A0001B0100081B0100081B0100081B010008C0
:1000B0001B0100081B010008000000001B010008D4
:1000C0001B01000800000000000000001B010008E8
:1000D000000000001B0100081B01000800000000D8
:1000E0001B0100081B0100081B010008DFF80CD0F1
:1000F00000F02AF8004800472D0E000858040020A0
:100100000648804706480047FEE7FEE7FEE7FEE7B1
:10011000FEE7FEE7FEE7FEE7FEE7FEE7D90D000893
:10012000ED000008D2B201E000F8012B491EFBD21D
:1001300070470022F6E710B513460A4604461946F2
:10014000FFF7F0FF204610BD064C074D06E0E068C3
:1001500040F0010394E8070098471034AC42F6D30E
:10016000FFF7C8FF700F0008900F0008FEE70000BF
:1001700070470000B0B5044600F012F9054640F2A1
:100180000000C2F200000078611C18BF044400BFE8
:1001900000F006F9401BA042FAD3B0BD2DE9F04FA4
:1001A00082B041F20002C4F201020E6803239042C1
:1001B00008BF0223002E009300F0EE8040F20C4CAA
:1001C0004FF6FF7EC4F2010C00220124C1F2100E92
:1001D0004FF0000B4FF000094AE000BF40F600442A
:1001E000C4F20104009DA04208BF012502F00C04E6
:1001F0000F27A7402AEA070705FA04F43C4343F80F
:100200002640D1F804A040F20045C4F201055FEA9F
:10021000CA332B6854BF23EA080343EA08032B6060
:100220006B685FEA8A3454BF23EA080343EA080391
:100230006B605FEACA24AB6854BF23EA080343EA51
:1002400008035FEA8A24AB60DCF800304FF0010459
:1002500054BF23EA080343EA0803CCF800300E68D1
:100260000BF1010B36FA0BF302F1040200F094805B
:1002700004FA0BF816EA080FF1D04E68764511DC47
:10028000122E55D8DFE806F0340A4448545454542A
:100290005454545454545454544C5000D1F80C9069
:1002A00046E000BF4FF6FF73C1F221039E420FDC10
:1002B0000023C1F211039E421AD00023C1F212039F
:1002C0009E4215D00023C1F221039E4210D02FE0A0
:1002D0000023C1F222039E420AD00023C1F231035F
:1002E0009E4205D00023C1F232039E4220D100BFBE
:1002F0008B684BB1012B14BFC0F81480C0F810807C
:100300004FF0080914E000BF4FF0040910E000BFEF
:10031000CB6803F108090BE04FF0000908E000BFCB
:10032000CB6803F1040903E0CB6803F10C0900BFBB
:1003300013460546BBF1080F24BF203B04352E6849
:100340000F279F40BE4309FA03F333432B60CB7959
:10035000DB067FF584AF41F21804C4F2020423687F
:100360004FEA9B0643F001032360236840F6000434
:1003700003F001030193019B40F20043C4F2010327
:10038000A3F57E7353F826A0C4F20104A0427FF4C3
:1003900025AF00252AE700BF02B0BDE8F08F0000BE
:1003A00040F25000C2F200000068704740F20000C6
:1003B00040F25001C2F20000C2F2000100780A6867
:1003C000104408607047000080B542F20000C4F29B
:1003D0000200016841F010010160032000F07AF88A
:1003E000002000F005F800F027F8002080BD000094
:1003F00070B540F20006C2F2000640F20801327801
:10040000C2F200014FF47A730968B3FBF2F20446BA
:10041000B1FBF2F1084600F04FFB0F2C4FF0010545
:1004200008D838B94FF0FF3021460022002500F0EF
:1004300025F87460284670BD82B041F21800C4F2FD
:1004400002000168042241F001010160016801F02D
:10045000010101910199416841F08051416040687A
:1004600000F08050009000980420C4F20100016860
:1004700062F31A61016002B07047000010B54EF6D9
:100480000C5CCEF2000CDCF80030C3F3022E8EF0D0
:100490000704042C28BF0424BEF103034FF0FF3EE1
:1004A0000EFA04F438BF0023A14399400EFA03F377
:1004B0009A43114300F00F02043A624409010C32DE
:1004C00000F16043B0F1FF3FC8BF03F56442117013
:1004D00010BD00004EF60C51CEF200010A684FF636
:1004E000FF031A4060F30A2242F0806040F0FD7082
:1004F000086070472DE9F04381B0002800F0858046
:1005000042F20008C4F202080446D8F800000D4682
:1005100000F0070088420CD2D8F8000020F0070055
:100520002843C8F80000D8F8000000F00700A842EF
:100530006BD1206841F204098107C4F2020917D582
:10054000410705D5D9F8001041F4E061C9F8001061
:10055000010705D5D9F8001041F46051C9F8001021
:10056000D9F80010A26821F0F0011143C9F8001079
:10057000C00741D1D8F8000000F00700A8420CD90C
:10058000D8F8000020F007002843C8F80000D8F889
:10059000000000F00700A84237D12068410707D5C6
:1005A000D9F80010E26821F4E0611143C9F80010A5
:1005B000000708D5D9F80000216920F4605040EA0E
:1005C000C100C9F80000D9F8002002F00C0008288A
:1005D00041F20020C0F27A0050D140F65E73C2F3BF
:1005E0008341C0F60003595CD2033BD440F60010AF
:1005F000C0F23D00484341E0606802280AD001286B
:100600002AD159F8041C890308D4012001B0BDE89F
:10061000F08300BF59F8041C8901F6D5D9F8001001
:1006200021F003010843C9F80000FFF7B9FE0646B0
:1006300041F28837D9F80000616800F00C00B0EB97
:10064000810F97D0FFF7ACFE801BB842F2D9032090
:1006500001B0BDE8F08300BF59F8041C8907D4D568
:10066000DCE700BFD9F8002040F64473C2F34042F3
:10067000C0F600039A5C4843B0FBF2F0D9F80010D2
:1006800040F64672C1F30311C0F60002515C40F21D
:10069000080220FA01F140F20400C2F200000068F2
:1006A000C2F200021160FFF7A3FE002001B0BDE816
:1006B000F083000040F2080041F20401C2F20000A1
:1006C000C4F202010068096840F65672C1F30221C3
:1006D000C0F60002515CC8407047000040F20800BC
:1006E00041F20401C2F20000C4F20201006809688C
:1006F00040F65672C1F3C221C0F60002515CC840F8
:10070000704700002DE9F04182B0002868D004460F
:10071000007841F20006C007C4F2020625D07068D6
:1007200000F00C0004281BD0706800F00C000828B2
:1007300002D17068C00313D46068002800F068819B
:10074000B0F5A02F00F07C81B0F5803F00F07C81F7
:10075000306820F480303060306820F4802076E10A
:100760003068800301D56068D0B32078800718D541
:10077000706810F00C0F07D0706800F00C000828AB
:100780006ED17068C0036BD43068800702D52069D1
:10079000012825D13068616920F0F80040EAC100E5
:1007A0003060207800071FD42078400732D4E569F4
:1007B00095B1706800F00C00082840F08F80012D82
:1007C0000ED07068216A00F480328A4208D1616AD2
:1007D00000F47010884203D1002002B0BDE8F0811F
:1007E000012002B0BDE8F081A069002862D000209D
:1007F000C4F242200121C0F88014FFF7D1FD054664
:10080000706A800700F18C80FFF7CAFD401B022848
:10081000F6D92AE1F06910F0805808D1F06940F06B
:100820008050F061F06900F080500090009847F22D
:100830000007C4F200073868C00529D4386840F4BE
:1008400080703860FFF7ACFD054600BF3868C00512
:100850001ED4FFF7A5FD401B6428F7D905E100BFB2
:100860002069002840F20000C4F2422000F082809B
:1008700001210160FFF794FD054600BF3068800745
:100880003FF588AFFFF78CFD401B0228F6D9ECE05E
:10089000E068002800F08080052800F0978001289B
:1008A00000F09880306A20F001003062306A20F059
:1008B000040092E00020C4F242200021C0F880141D
:1008C000FFF76EFD054600BF706A80077FF56CAFCD
:1008D000FFF766FD401B0228F6D9C6E00027C4F2E8
:1008E000422700203866FFF75BFD022D05460BD13D
:1008F0003068800140F1BE80FFF752FD401B0228A6
:100900004FF00300F4D968E7306880017FF564AFE9
:10091000FFF746FD401B02284FF00300F4D95CE7C7
:1009200040F20800C2F20000006844F6D351C1F260
:100930006201A0FB0101480A019000BF00BF0198BD
:10094000411E002801913FF42FAF00BF0198411EC6
:10095000002801913FF428AF00BF0198411E0028F4
:1009600001913FF421AF00BF0198411E0028019181
:10097000E4D119E700210160FFF712FD054600BF31
:10098000306880077FF50DAFFFF70AFD401B022896
:100990004FF00300F4D920E7306A20F00100306204
:1009A000306A20F004003062FFF7FAFC054641F29D
:1009B000883700BF306A800720D5FFF7F1FC401B65
:1009C000B8424FF00300F5D907E700BF306A40F0A6
:1009D00004003062306A40F001003062FFF7E0FC52
:1009E000054641F2883700BF306A800706D4FFF71A
:1009F000D7FC401BB842F7D937E000BFB8F1000F71
:100A00007FF4D5AEF06920F08050F061CFE600BFF2
:100A1000306820F480303060306820F4802030600E
:100A2000FFF7BEFC054600BF306880037FF59DAE32
:100A3000FFF7B6FC401B64284FF00300F4D9CCE666
:100A4000306840F480203060306840F4803030609E
:100A5000FFF7A6FC054600BF306880033FF585AE72
:100A6000FFF79EFC401B6428F6D9032002B0BDE8C6
:100A7000F08100BF206AB0F5803F05D17168A2689F
:100A800021F40031114371607168626A21F47411BC
:100A900010430843706001203866FFF781FC04466C
:100AA000306880013FF598AEFFF77AFC001B022802
:100AB0004FF00300F4D990E6411E0020B0EB116F17
:100AC0001CBF012070474EF21002CEF200025160AE
:100AD0004EF62351CEF20001F0230B7007219060F7
:100AE00011607047002804BF0120704710B504460C
:100AF00090F8390028B9002084F83800204600F02A
:100B00005FF8242084F839002068D4E90212C36811
:100B100023F40053C360036923F440531A43026172
:100B2000D4E904231143C268194341F20C639A4388
:100B30001143C1604169A26921F44071114343F638
:100B40000002C4F201029042416103D0FFF7B2FDFE
:100B500002E000BFFFF7C2FD62681921484391001F
:100B6000B0FBF1F048F21F51C5F2EB11A0FB0123DD
:100B70005A096FF0630302FB0300322303EB0010FA
:100B8000A0FB0101F02303EA5113206803EB0212DA
:100B9000C1F3431111448160016921F49041016165
:100BA000416921F02A014161C16841F40051C160ED
:100BB00000202021E06384F8391084F83A1010BD39
:100BC00070B586B040F60004C4F201040068A4F5D4
:100BD000444100268842049602D006B070BD00BF92
:100BE00041F21800C4F20200416802AD41F4003144
:100BF0004160416801F4003101910199016841F0BF
:100C0000040101600068294600F004000190019889
:100C10000420029002200390032005902046FFF755
:100C2000BDFA0820CDE90206204629460496FFF7C2
:100C3000B5FA06B070BD00002DE9F041044690F809
:100C4000390020280ED10F4600294FF0010000F096
:100C5000B4801646002A08BFBDE8F08194F8380039
:100C6000012803D10220BDE8F08100BF012084F8F3
:100C700038000020E06321201D4684F83900FFF78A
:100C80008FFBA684E684E18C0646002960D005F13E
:100C9000010805E017F8011B4160E18C002958D0DC
:100CA000E08C0138E0842068A1680268B1F5805FBB
:100CB00002F080011ED179B9B8F1000F2CD0002DBF
:100CC0006AD000BFFFF76CFB811B2068A94263D884
:100CD00001680906F6D500BF39886FF35F214160CE
:100CE0002169002914BF01370237E18C0029D7D1CF
:100CF0002FE000BF0029CDD1B8F1000F1AD0002D90
:100D00004AD000BFFFF74CFB811B2068A94243D8A3
:100D100001680906F6D5BDE701680906DCD401685B
:100D200009065CBF01685FEA0161D5D40168090664
:100D3000F2D5D1E701680906ACD4016809065CBFA9
:100D400001685FEA0161A5D401680906F2D5A1E74F
:100D50002068016849061AD4F5B1691C0ED10168F2
:100D6000490614D4016849065CBF01685FEA416125
:100D70000DD401684906F2D509E000BFFFF710FB6A
:100D8000811B2068A94207D800684006F6D52020BC
:100D900084F8390000200DE0C16821F4D071C160F1
:100DA000416921F001014161202084F8390084F873
:100DB0003A000320002184F83810BDE8F0810000DB
:100DC000FEE70000FEE70000FEE7000070470000BD
:100DD00070470000FFF7EABA41F20000C4F20200D7
:100DE0000168002241F0010101604168CFF6FF0275
:100DF0001140416001684FF6FF72CFF6F662114074
:100E00000160016821F480210160416821F4FE0144
:100E100041604FF41F0181604EF60850CEF2000091
:100E20004FF0006101607047FEE7000094B046F6A5
:100E30007240C0F66420039042F26F00C6F67770ED
:100E4000029046F268500025C6F66C400495019069
:100E5000FFF7BAFA0AAC201D2421FFF76AF9022035
:100E60000A9001200E9010200F9020461195FFF758
:100E700049FC28B1EFF3108072B600BFFEE700BF57
:100E80000F20CDE9050505A80021CDE907550995F5
:100E9000FFF730FB20B1EFF3108072B6FEE700BF22
:100EA00041F21800C4F202000168002341F0200161
:100EB000016001680C2501F020010A910A9901687E
:100EC0004FF4E13241F004010160006844F2004156
:100ED00000F004000A900A9840F21000C2F20000EC
:100EE000C4F2000180E80E00C0E90333C0E90553F5
:100EF000C361FFF7F7FD28B1EFF3108072B600BFB2
:100F0000FEE700BF40F21004C2F2000401AD00BFD2
:100F10004FF47A70FFF72EF9204629460E2205235A
:100F2000FFF78AFEF4E702E008C8121F08C1002A92
:100F3000FAD170477047002001E001C1121F002A5A
:100F4000FBD1704701020000000000000000010218
:100F5000030406070809000000000102030402035D
:100F60000405060708090A0B0C0D0E0F10100000EF
:100F7000900F00080000002010000000260F00085D
:100F8000A00F00081000002048040000360F0008E1
:100F900001000000100000000024F4000000000028
:04000005080000ED02
:00000001FF
