:020000040800F2
:10000000F808002001010008251D0008151A000845
:10001000211D000899010008851D0008000000004E
:100020000000000000000000000000002D1D00087E
:100030009D01000800000000291D0008311D000876
:100040001B0100081B0100081B0100081B01000820
:100050001B0100081B0100081B0100081B01000810
:100060001B0100081B0100081B0100081B01000800
:100070001B0100081B0100081B0100081B010008F0
:100080001B0100081B0100081B0100081B010008E0
:100090001B0100081B0100081B0100081B010008D0
:1000A0001B0100081B0100081B0100081B010008C0
:1000B0001B0100081B010008000000001B010008D4
:1000C0001B01000800000000000000001B010008E8
:1000D000000000001B0100081B01000800000000D8
:1000E0001B0100081B0100081B010008DFF80CD0F1
:1000F00000F040F800480047891D0008F80800207B
:100100000648804706480047FEE7FEE7FEE7FEE7B1
:10011000FEE7FEE7FEE7FEE7FEE7FEE7351D000827
:10012000ED000008D2B201E000F8012B491EFBD21D
:1001300070470022F6E710B513460A4604461946F2
:10014000FFF7F0FF204610BD30B50B4601460020FA
:100150002022012409E021FA02F59D4205D303FA89
:1001600002F5491B04FA02F52844151EA2F101020A
:10017000F1DC30BD064C074D06E0E06840F00103BD
:1001800094E8070098471034AC42F6D3FFF7B2FF6B
:10019000F852000818530008FEE7000070470000FE
:1001A00010B581B00022009290F82420012A03D1DA
:1001B0000221084601B010BD4B680122062B80F8D1
:1001C000242015D8026803EB8303A3F1050E1F2337
:1001D000D2F834C003FA0EF40B682CEA040C03FACC
:1001E0000EF444EA0C045463092B17D937E000BF1E
:1001F00002680C2B20D803EB8303A3F123041F23F5
:10020000D2F830C003FA04FE0B682CEA0E0C03FA95
:1002100004F444EA0C041463092B20D8D2F810C06B
:1002200003EB4303072489689C402CEA04049940AB
:1002300021431161002136E003EB8303A3F1410464
:100240001F23D2F82CC003FA04FE0B682CEA0E0C14
:1002500003FA04F444EA0C04D462092BDED903EB5C
:100260004304D2F80CC0A4F11E0E0724896804FAD6
:100270000EF42CEA040401FA0EF1214323F00104E8
:10028000102CD1600ED142F20841C4F20101A1F15B
:100290000804A2420ED0816A41F02001816201214E
:1002A00001E000BF0021002280F82420084601B0B0
:1002B00010BD00BF0A68120230D40A68102B42F445
:1002C00000020A602CD140F22001C2F2000109684C
:1002D0004DF68362C4F21B32A1FB0212910C01EBBA
:1002E0008101490000910099E1B100990139009123
:1002F0000099C9B10099013900910099B1B10099F3
:1003000001390091009999B1009901390091009942
:1003100000294FF00001E8D1C5E700BF0021C2E786
:100320000021C0E70021BEE70021BCE70021BAE7B9
:100330000021B8E70068C06C70470000B0B5002825
:1003400000F0A0800446806A20B120688168C90757
:100350000BD031E00020E06284F82400204600F059
:1003600093F820688168C90726D1A16AC9063DD4DF
:10037000A16A41F2021291430231A162E169D4E91A
:10038000013241EA030C531EB3FA83F35D091346AD
:10039000B2F5807F18BF2B02217D257B01294CEA15
:1003A000450132D145B3A56A45F02005A562E56A4D
:1003B00045F00105E56228E0816821F001018160D6
:1003C00000F046FB054600BF20688168C907CCD015
:1003D00000F03EFB401B0328F6D3A06A40F010005B
:1003E000A062E06A40F00100E062A06AA06A40F00A
:1003F0001000A0620120B0BDD4F818C04EF6000570
:10040000CFF6FF7505EB4C352B434568B2F5807F81
:1004100025F4694543EA0503436083684FF2FD759F
:10042000CFF6E17503EA050343EA0103836001D0D7
:10043000012A07D122690023CFF6F07303EB0252A1
:1004400001E000BF0022C36A23F470031A43C262B2
:10045000806840F6FE62CFF61F721040884207D1D6
:100460000020E062A16A012262F30101A162B0BD35
:10047000A06A40F0100020F00200A062E06A40F0A4
:100480000100E0620120B0BD80B586B0014640F6B3
:100490000000C4F20100096800F5E05291424FF0FB
:1004A0000001CDE9041101D006B080BD41F2180170
:1004B000C4F202010A6842F400720A600A6802F497
:1004C00000720192019A0A6842F004020A60096807
:1004D00001F0040101910199E021029103210391AE
:1004E00002A900F0ADF906B080BD00002DE9F04191
:1004F00082B000270D460446019700F0A9FA216852
:100500008A68D20544D406464868C00503D4C86A40
:1005100010F4700F46D040F22000C2F200000768CD
:1005200042F292480220C1F2492800F00FFD2168F2
:1005300044F624130A69B7FBF0F0C2F292431A4260
:1005400006D1CA6844F62413C0F292031A4249D075
:100550000A6912EA080F07D1CA6842F29243C0F250
:1005600049031A4200F084800A6949F24923C0F223
:1005700024031A424FF0FC0242D1CF681F4208BF49
:100580005422019B02FB00F7BB423ED379E000BF3F
:10059000A06A40F02000A06284F82470012002B01C
:1005A000BDE8F081086880076BD4002D55D0681C29
:1005B00012D10868800764D4086880075CBF0868A7
:1005C0005FEA80705DD408688007F2D559E000BF0B
:1005D00021680868800754D400F03AFA801BA842CA
:1005E000F6D93AE00A6912EA080F4FF0290207D15A
:1005F000CB6842F29247C0F249073B4208BF14223F
:10060000019B02FB00F7BB423BD235B3681C1FD1F4
:100610000198013001900198B84232D2019801301E
:1006200001900198B8422CD20198013001900198B4
:10063000B84226D20198013001900198B842E7D320
:100640001FE000BF0198013001900198B84217D215
:1006500000F0FEF9801BA842F4D9A06A40F0040023
:10066000A062002084F82400032002B0BDE8F081DD
:100670005422019B02FB00F7BB42C6D301E000BF3E
:1006800021686FF012000860A06A40F40070A06258
:10069000886800F46020B0F5602F01D1207B18B18C
:1006A000002002B0BDE8F081A06A20F48070A06252
:1006B000A06AC004F4D4A06A40F00100A062002047
:1006C00002B0BDE8F0810000B0B582B0044690F8F9
:1006D0002400012802D1022002B0B0BD012084F81C
:1006E00024000020019020688168C90742D18168F8
:1006F00041F00101816040F22000C2F20000006878
:100700004DF68361C4F21B31A0FB0101880C0190FE
:100710000198A0B1019801380190019878B1019831
:1007200001380190019850B1019801380190019869
:1007300028B101980138019001980028EAD100F011
:1007400087F9054620688168C90713D100F080F950
:10075000401B0228F6D9A06A40F01000A062E06AAF
:1007600040F00100E062002084F82400012002B083
:10077000B0BD00BFA26A42F2044140F20133C4F2AC
:1007800001019A4302F5807301F57F729042A362E2
:100790002ED0A36A23F48013A36243685B0504D5BB
:1007A000A36A012565F30D33A362A56A0023ED0456
:1007B0004FF0000544BFE56A25F00605E56284F8C0
:1007C00024306FF002030360836803F46023B3F501
:1007D000602F05D1904217D1096811F4702F13D002
:1007E000816841F480118160002002B0B0BD00BF7B
:1007F0000B6813F4702FCCD0A36A43F48013A36268
:100800000B685B05CCD4D0E7816841F4A00181601E
:10081000002002B0B0BD0000B0B5044600F018F9E9
:10082000054640F20000C2F200000078611C18BFCB
:10083000044400BF00F00CF9401BA042FAD3B0BD45
:100840002DE9F04F82B041F20002C4F201020E68BD
:100850000323904208BF0223002E009300F0EE8095
:1008600040F20C4C4FF6FF7EC4F2010C0022012432
:10087000C1F2100E4FF0000B4FF000094AE000BF2C
:1008800040F60044C4F20104009DA04208BF0125C7
:1008900002F00C040F27A7402AEA070705FA04F420
:1008A0003C4343F82640D1F804A040F20045C4F28E
:1008B00001055FEACA332B6854BF23EA080343EA01
:1008C00008032B606B685FEA8A3454BF23EA08038D
:1008D00043EA08036B605FEACA24AB6854BF23EAAB
:1008E000080343EA08035FEA8A24AB60DCF80030BF
:1008F0004FF0010454BF23EA080343EA0803CCF88D
:1009000000300E680BF1010B36FA0BF302F1040212
:1009100000F0948004FA0BF816EA080FF1D04E6844
:10092000764511DC122E55D8DFE806F0340A44482B
:10093000545454545454545454545454544C5000D7
:10094000D1F80C9046E000BF4FF6FF73C1F22103CF
:100950009E420FDC0023C1F211039E421AD00023F5
:10096000C1F212039E4215D00023C1F221039E4220
:1009700010D02FE00023C1F222039E420AD00023B0
:10098000C1F231039E4205D00023C1F232039E42E0
:1009900020D100BF8B684BB1012B14BFC0F814806D
:1009A000C0F810804FF0080914E000BF4FF00409B0
:1009B00010E000BFCB6803F108090BE04FF000091D
:1009C00008E000BFCB6803F1040903E0CB6803F142
:1009D0000C0900BF13460546BBF1080F24BF203B9E
:1009E00004352E680F279F40BE4309FA03F33343B3
:1009F0002B60CB79DB067FF584AF41F21804C4F29B
:100A0000020423684FEA9B0643F001032360236836
:100A100040F6000403F001030193019B40F2004300
:100A2000C4F20103A3F57E7353F826A0C4F20104B7
:100A3000A0427FF425AF00252AE700BF02B0BDE841
:100A4000F08F00008068084018BF01207047000048
:100A500040F2F440C2F200000068704770B578B30D
:100A6000044690F83D0028B9002084F83C00204658
:100A700000F096F9242084F83D002068016821F0F8
:100A80000101016000F040FC48F28041C0F21E010B
:100A900040F60013D4F804E088424FF00001C0F2A1
:100AA0003D0348F2A16C4FF0000238BF012198428B
:100AB000C0F2010C38BF0122E64538BF0A460AB130
:100AC000012070BD4DF68361C4F21B31A0FB011201
:100AD0002168950C4B684FF4967623F03F0343EA68
:100AE0009243754344F6D3564B60C1F262060B6ADB
:100AF000A5FB0656B50923F03F03E64538BF950C24
:100B00006A1C1A430A62CA6948F2A0664CF6FF736F
:100B1000C0F20106B64522EA03020BD801384FEABB
:100B20004E03B0FBF3F001306FF31F30042898BF81
:100B300004201EE0A368013863B119230EFB03F300
:100B4000B0FBF3F001306FF31F3078B100F5804057
:100B500008E000BF0EEB4E03B0FBF3F001306FF383
:100B60001F3028B100F5004003E000BF012000E085
:100B700001201043C8610868D4E9072320F0C000B1
:100B8000104318430860886848F2FF3204F10C06ED
:100B900090434CCE18431043A5698860C86820F084
:100BA000FF0030432843C860086840F00100086037
:100BB00000202021206484F83D10206384F83E004A
:100BC00070BD00002DE9F04383B0994616460F46EC
:100BD0000446FFF73DFF94F83D1020291CD105463F
:100BE00020688169890713D5FFF732FF401B192858
:100BF000F6D900202021206384F83D1084F83E00BF
:100C0000216C41F02001216484F83C0004E000BF25
:100C100094F83C10012903D1022003B0BDE8F08311
:100C2000012284F83C200368DDE90B180A9ADB07EF
:100C300003D1036843F001030360036823F40063F6
:100C40000360212084F83D00402084F83E0000200D
:100C5000206462626185608D394620850020CFF670
:100C6000FF70E062204632464B46CDF80080019589
:100C700000F0D2FE20B1012003B0BDE8F08300BF38
:100C8000208D002850D0206808F10106014651F857
:100C9000142F12062CD49EB1B8F1000F5AD000BF09
:100CA000086840055ED4FFF7D3FE401B404556D888
:100CB0002068014651F8142F1206F1D518E000BF44
:100CC0000A6852054ED40A68120611D40A68520501
:100CD00048D40A6812060BD40A68520542D40A683E
:100CE000120605D40A6852053CD40A681206E7D5F4
:100CF000626A114611F8013B0361238D6162591E3E
:100D00002185678D013F678547697F070AD50F04F5
:100D100008D051780161911C6162991E2185628D14
:100D2000013A62850904B1D1204641462A4600F0C5
:100D3000A3FF38BB2068016841F4007101602020E6
:100D400084F83D00002084F83E0084F83C0003B0A5
:100D5000BDE8F0830868400504D4FFF779FE202041
:100D600004E000BF6FF480600860042000212022AE
:100D7000216384F83D2084F83E10226C10432064E7
:100D800084F83C10206C04287FF475AF206801685B
:100D900041F400710160012003B0BDE8F083000060
:100DA00010B586B0016845F20040C4F200008142EF
:100DB00002D006B010BD00BF41F21804C4F2020414
:100DC000216800F5384041F008012160216801F0F8
:100DD000080102910299C02102911221039101217F
:100DE00004910321059102A9FFF72AFD606840F4F0
:100DF00000106060606800F400100190019806B077
:100E000010BD000040F2000040F2F441C2F20000C8
:100E1000C2F2000100780A681044086070470000C0
:100E200080B542F20000C4F20200016841F01001F6
:100E30000160032000F07AF8002000F005F800F0CF
:100E400027F8002080BD000070B540F20006C2F215
:100E5000000640F220013278C2F200014FF47A73AA
:100E60000968B3FBF2F20446B1FBF2F1084600F068
:100E70004DFC0F2C4FF0010508D838B94FF0FF306A
:100E800021460022002500F025F87460284670BD38
:100E900082B041F21800C4F202000168042241F05D
:100EA00001010160016801F00101019101994168AE
:100EB00041F080514160406800F0805000900098FF
:100EC0000420C4F20100016862F31A61016002B0FB
:100ED0007047000010B54EF60C5CCEF2000CDCF84A
:100EE0000030C3F3022E8EF00704042C28BF042424
:100EF000BEF103034FF0FF3E0EFA04F438BF0023A7
:100F0000A14399400EFA03F39A43114300F00F02F4
:100F1000043A624409010C3200F16043B0F1FF3F32
:100F2000C8BF03F56442117010BD00004EF60C51AD
:100F3000CEF200010A684FF6FF031A4060F30A225E
:100F400042F0806040F0FD700860704780B5012875
:100F500018D0022836D0102832D141F20401C4F250
:100F600002010A6851F8040CC00129D5C2F383407C
:100F70002DA3185CD2033DD440F60012C0F23D020E
:100F8000504343E041F20400C4F20200C16940F260
:100F900002320A40B2F5817F04BF4FF4004080BDA9
:100FA00001F44071B1F5407F1CD0B1F5007F07D14D
:100FB000006A49F64041800701EAE07080BD00BF49
:100FC000002080BD00F0B4F941F20401C4F2020136
:100FD00009680222C1F3813102EB4101B0FBF1F05B
:100FE00080BD00BF50F8040C4FF22441800301EA99
:100FF000E07080BD0A6810A3C2F340429A5C41F2DF
:101000000023C0F27A03B3FBF2F2504309684902AD
:1010100048BF80BD4AF6AB214000CAF6AA21A0FB1A
:101020000101480880BD00BF020304050607080946
:101030000A0B0C0D0E0F1010010200002DE9F041FB
:1010400082B00446007841F21C06C007C4F20206D2
:101050004AD0306810F0805808D1306840F0805095
:101060003060306800F080500190019847F200072E
:10107000C4F200073868C00512D4386840F48070A4
:101080003860FFF7E5FC05463868C00508D4FFF76F
:10109000DFFC401B6428F7D9032002B0BDE8F081D3
:1010A000706810F4407012D0616801F44071884299
:1010B0000DD0706840F24042C4F24222012320F475
:1010C000407113600023C007136071602AD17068FB
:1010D000616820F440700843B8F1000F706003D1DC
:1010E000306820F0805030602068810707D556F8BE
:1010F000181CA26821F44041114346F8181CC00690
:1011000004D4002002B0BDE8F08100BF56F8180CEE
:10111000E16820F48000084346F8180C002002B073
:10112000BDE8F081FFF794FC054641F2883700BF27
:1011300070688007CBD4FFF78BFC401BB8424FF0A0
:101140000300F5D9EBE700002DE9F04381B000285A
:1011500000F0858042F20008C4F202080446D8F884
:1011600000000D4600F0070088420CD2D8F80000BD
:1011700020F007002843C8F80000D8F8000000F06D
:101180000700A8426BD1206841F204098107C4F22C
:10119000020917D5410705D5D9F8001041F4E061DF
:1011A000C9F80010010705D5D9F8001041F46051C5
:1011B000C9F80010D9F80010A26821F0F00111431D
:1011C000C9F80010C00741D1D8F8000000F00700AE
:1011D000A8420CD9D8F8000020F007002843C8F82E
:1011E0000000D8F8000000F00700A84237D12068BE
:1011F000410707D5D9F80010E26821F4E0611143F6
:10120000C9F80010000708D5D9F80000216920F4BA
:10121000605040EAC100C9F80000D9F8002002F08F
:101220000C00082841F20020C0F27A0050D145F2AB
:10123000E423C2F38341C0F60003595CD2033BD4DC
:1012400040F60010C0F23D00484341E060680228CB
:101250000AD001282AD159F8041C890308D4012096
:1012600001B0BDE8F08300BF59F8041C8901F6D530
:10127000D9F8001021F003010843C9F80000FFF776
:10128000E7FB064641F28837D9F80000616800F0B4
:101290000C00B0EB810F97D0FFF7DAFB801BB84250
:1012A000F2D9032001B0BDE8F08300BF59F8041C57
:1012B0008907D4D5DCE700BFD9F8002042F6B62371
:1012C000C2F34042C0F600039A5C4843B0FBF2F020
:1012D000D9F8001042F6B822C1F30311C0F600029B
:1012E000515C40F2200220FA01F140F20400C2F207
:1012F00000000068C2F200021160FFF7A5FD0020A7
:1013000001B0BDE8F083000040F2200041F204018A
:10131000C2F20000C4F202010068096842F6C82265
:10132000C1F30221C0F60002515CC84070470000C2
:1013300040F2200041F20401C2F20000C4F20201B6
:101340000068096842F6C822C1F3C221C0F6000253
:10135000515CC840704700002DE9F04182B0002880
:1013600068D00446007841F20006C007C4F20206C5
:1013700025D0706800F00C0004281BD0706800F0C5
:101380000C00082802D17068C00313D460680028DC
:1013900000F06881B0F5A02F00F07C81B0F5803FAF
:1013A00000F07C81306820F480303060306820F4B8
:1013B000802076E13068800301D56068D0B3207862
:1013C000800718D5706810F00C0F07D0706800F017
:1013D0000C0008286ED17068C0036BD43068800799
:1013E00002D52069012825D13068616920F0F80014
:1013F00040EAC1003060207800071FD42078400701
:1014000032D4E56995B1706800F00C00082840F00E
:101410008F80012D0ED07068216A00F480328A42DC
:1014200008D1616A00F47010884203D1002002B034
:10143000BDE8F081012002B0BDE8F081A06900287C
:1014400062D00020C4F242200121C0F88014FFF7CE
:10145000FFFA0546706A800700F18C80FFF7F8FA02
:10146000401B0228F6D92AE1F06910F0805808D113
:10147000F06940F08050F061F06900F08050009019
:10148000009847F20007C4F200073868C00529D465
:10149000386840F480703860FFF7DAFA054600BF1C
:1014A0003868C0051ED4FFF7D3FA401B6428F7D96B
:1014B00005E100BF2069002840F20000C4F242208C
:1014C00000F0828001210160FFF7C2FA054600BFEB
:1014D000306880073FF588AFFFF7BAFA401B022853
:1014E000F6D9ECE0E068002800F08080052800F0E4
:1014F0009780012800F09880306A20F00100306267
:10150000306A20F0040092E00020C4F24220002162
:10151000C0F88014FFF79CFA054600BF706A800788
:101520007FF56CAFFFF794FA401B0228F6D9C6E0AE
:101530000027C4F2422700203866FFF789FA022DFF
:1015400005460BD13068800140F1BE80FFF780FA7C
:10155000401B02284FF00300F4D968E7306880018F
:101560007FF564AFFFF774FA401B02284FF00300C9
:10157000F4D95CE740F22000C2F20000006844F6B3
:10158000D351C1F26201A0FB0101480A019000BFE2
:1015900000BF0198411E002801913FF42FAF00BF0A
:1015A0000198411E002801913FF428AF00BF019827
:1015B000411E002801913FF421AF00BF0198411E58
:1015C00000280191E4D119E700210160FFF740FAFA
:1015D000054600BF306880077FF50DAFFFF738FA8A
:1015E000401B02284FF00300F4D920E7306A20F0B6
:1015F00001003062306A20F004003062FFF728FA00
:10160000054641F2883700BF306A800720D5FFF7D2
:101610001FFA401BB8424FF00300F5D907E700BF9F
:10162000306A40F004003062306A40F001003062FD
:10163000FFF70EFA054641F2883700BF306A80078F
:1016400006D4FFF705FA401BB842F7D937E000BFD0
:10165000B8F1000F7FF4D5AEF06920F08050F06152
:10166000CFE600BF306820F480303060306820F46E
:1016700080203060FFF7ECF9054600BF306880033A
:101680007FF59DAEFFF7E4F9401B64284FF003009F
:10169000F4D9CCE6306840F480203060306840F403
:1016A00080303060FFF7D4F9054600BF3068800312
:1016B0003FF585AEFFF7CCF9401B6428F6D903202F
:1016C00002B0BDE8F08100BF206AB0F5803F05D1CF
:1016D0007168A26821F40031114371607168626A17
:1016E00021F4741110430843706001203866FFF73D
:1016F000AFF90446306880013FF598AEFFF7A8F9CE
:10170000001B02284FF00300F4D990E6411E002090
:10171000B0EB116F1CBF012070474EF21002CEF2E9
:10172000000251604EF62351CEF20001F0230B70FF
:101730000721906011607047002804BF01207047A6
:1017400010B5044690F8390028B9002084F8380014
:10175000204600F05FF8242084F839002068D4E99E
:101760000212C36823F40053C360036923F4405397
:101770001A430261D4E904231143C268194341F2B8
:101780000C639A431143C1604169A26921F440711D
:10179000114343F60002C4F201029042416103D0BA
:1017A000FFF7B2FD02E000BFFFF7C2FD626819213A
:1017B00048439100B0FBF1F048F21F51C5F2EB1124
:1017C000A0FB01235A096FF0630302FB03003223DD
:1017D00003EB0010A0FB0101F02303EA5113206882
:1017E00003EB0212C1F3431111448160016921F43A
:1017F00090410161416921F02A014161C16841F4D0
:101800000051C16000202021E06384F8391084F881
:101810003A1010BD70B586B040F60004C4F2010461
:101820000068A4F5444100268842049602D006B020
:1018300070BD00BF41F21800C4F20200416802AD61
:1018400041F400314160416801F400310191019996
:10185000016841F0040101600068294600F00400BD
:10186000019001980420029002200390032005902B
:101870002046FEF7E5FF0820CDE90206204629466E
:101880000496FEF7DDFF06B070BD00002DE9F041C3
:10189000044690F8390020280ED10F4600294FF059
:1018A000010000F0B4801646002A08BFBDE8F081B0
:1018B00094F83800012803D10220BDE8F08100BF70
:1018C000012084F838000020E06321201D4684F8C0
:1018D0003900FFF7BDF8A684E684E18C06460029AE
:1018E00060D005F1010805E017F8011B4160E18CAB
:1018F000002958D0E08C0138E0842068A168026893
:10190000B1F5805F02F080011ED179B9B8F1000F06
:101910002CD0002D6AD000BFFFF79AF8811B2068F9
:10192000A94263D801680906F6D500BF39886FF36C
:101930005F2141602169002914BF01370237E18C22
:101940000029D7D12FE000BF0029CDD1B8F1000F79
:101950001AD0002D4AD000BFFFF77AF8811B20680B
:10196000A94243D801680906F6D5BDE70168090612
:10197000DCD4016809065CBF01685FEA0161D5D467
:1019800001680906F2D5D1E701680906ACD40168FF
:1019900009065CBF01685FEA0161A5D40168090618
:1019A000F2D5A1E72068016849061AD4F5B1691C8F
:1019B0000ED10168490614D4016849065CBF01686C
:1019C0005FEA41610DD401684906F2D509E000BF24
:1019D000FFF73EF8811B2068A94207D8006840063F
:1019E000F6D5202084F8390000200DE0C16821F4EC
:1019F000D071C160416921F001014161202084F86A
:101A0000390084F83A000320002184F83810BDE83A
:101A1000F0810000FEE700002DE9F04381B00446AC
:101A2000006890460268099D42F480720260426933
:101A3000089E9946D2070F461DD1711C11D0002E69
:101A400000F0CE80FFF704F8401BB04200F2CA80DD
:101A500020684169C907F5D00DE000BF4169C90799
:101A600009D14169C90706D14169C90704BF416964
:101A70005FEAC171F2D007F0FE0101614169890797
:101A800038D44169721C01F4806111D049BB002E29
:101A900000F0DE80FEF7DCFF401BB04200F2DA808F
:101AA00020684169890725D441694905F2D518E0C4
:101AB000B9B9416989071DD44169490511D4416902
:101AC000890717D4416949050BD44169890711D4A5
:101AD0004169490505D4416989070BD44169490524
:101AE000E7D5016841F4007101606FF480614161E4
:101AF0000420B0E000210091014651F8142F00921B
:101B00004A680092009A0A6812061BD4002E77D009
:101B1000721C4AD10A6852057AD40A68120611D496
:101B20000A68520574D40A6812060BD40A68520572
:101B30006ED40A68120605D40A68520568D40A6889
:101B40001206E7D5B9F1010F42D04FEA1821016121
:101B5000014651F8142F12063AD4002E50D0721CB0
:101B600028D10A68520553D40A68120630D40A688C
:101B700052054DD40A6812062AD40A68520547D481
:101B80000A68120624D40A68520541D40A6812066B
:101B9000E7D51DE0FEF75CFF401BB04235D820685A
:101BA000014651F8142F1206CCD408684005F1D52F
:101BB0002EE000BF086840052AD4FEF749FF401B0D
:101BC000B04222D82068014651F8142F1206F1D5F0
:101BD0005FFA88F10161002001B0BDE8F08300BF29
:101BE000FEF736FF00202021206384F83D1084F8A2
:101BF0003E00216C41F02001216484F83C0023E088
:101C00000868400504D4FEF723FF202004E000BF4D
:101C10006FF480600860042000212022216384F892
:101C20003D2084F83E10226C1043206484F83C1060
:101C3000206C042808D12068016841F4007101601B
:101C4000012001B0BDE8F083012001B0BDE8F083C0
:101C5000FEF7FEFE202000212022216384F83D2093
:101C600084F83E10226C1043206484F83C1001205C
:101C700001B0BDE8F083000070B50368044653F876
:101C8000140F400737D40E46F1B1701C24D100BFA9
:101C90001868400532D4186840072CD418684005ED
:101CA0002CD41868400726D41868400526D4186834
:101CB000400720D41868400520D4186840074FF02A
:101CC000000048BF70BDE3E71868400516D4FEF772
:101CD000BFFE202016E000BF154600BF1868400573
:101CE0000CD4FEF7B5FE401BB042F2D8236853F87F
:101CF000140F4007F2D5002070BD00BF6FF4806064
:101D00001860042000212022216384F83D2084F8FB
:101D10003E10226C10432064012084F83C1070BDFA
:101D2000FEE70000FEE7000070470000704700007B
:101D3000FFF768B841F20000C4F202000168002217
:101D400041F0010101604168CFF6FF02114041609E
:101D500001684FF6FF72CFF6F6621140016001682C
:101D600021F480210160416821F4FE0141604FF4BB
:101D70001F0181604EF60850CEF200004FF0006166
:101D800001607047FEE700009AB0FFF749F810AC19
:101D9000201D2421FEF7CDF902201090012014907F
:101DA00010200025159020460A95CDE90855179575
:101DB000FFF7D2FA20B1EFF3108072B6FEE700BF52
:101DC0000F20CDE90B050BA80021CDE90D550F958E
:101DD000FFF7BAF920B1EFF3108072B6FEE700BF4B
:101DE00002200790002507A80995FFF727F928B1D9
:101DF000EFF3108072B600BFFEE700BF41F218009B
:101E00001395C4F20200016840F6000741F020017A
:101E100001600168C4F2010701F020010B910B99E8
:101E2000016810AC41F004010160016801F0040197
:101E30000B910B99016841F008010160006821468F
:101E400000F008000B900B984FF41840CDE91005F6
:101E500038461295FEF7F4FC382007F58068CDE986
:101E60001005404621461295FEF7EAFC40F230008C
:101E700007F5E051C2F200004FF46022012405731F
:101E80000575C261C0E9001585600461FEF756FA68
:101E900020B1EFF3108072B6FEE700BF40F23005CC
:101EA0000520C2F20005CDE91004002410A928463F
:101EB0001294FEF775F928B1EFF3108072B600BFE7
:101EC000FEE700BF40F2A040A7F53441C2F2000097
:101ED00048F2A0624FF48043C0F2010280E816008D
:101EE000C0E90343C0E90544C0E90744FEF7B6FD75
:101EF00020B1EFF3108072B6FEE700BFA7F54441B2
:101F0000284640F8301F4FF4E13100230C22C0E98D
:101F10000113C0E90333C0E90523C361FFF70CFCDB
:101F200020B1EFF3108072B6FEE700BF40F2A0448C
:101F3000C2F20004204600F05DF91420142100F0E4
:101F400005FB40F21000C2F20000D0E900129FA091
:101F500001234FF0010A00F0BDFC204600F0FEFA1C
:101F60004FF47A70FEF758FC002003903DE000BF6C
:101F700040F21805C2F200052C46296854F8042FD7
:101F80000198012300F0A6FC00200F2100F0DEFAEA
:101F90004FF02D0A1E27296822684846012300F0C9
:101FA00099FC0020394600F0D1FA29682268584689
:101FB000012300F08FFC0020514600F0C7FA296889
:101FC00022683046012300F085FC40F2A040C2F2B6
:101FD000000000F0C3FA40F6000740F23005C4F2FA
:101FE0000107C2F200054FF0010A40462021FEF72A
:101FF00029FD044640461021FEF724FD06464046D2
:102000000821FEF71FFD814638464FF40041FEF7D8
:1020100019FD049038464FF48051FEF713FD0590EA
:1020200038464FF40061FEF70DFD06900720CDE91C
:10203000100A0027284610A912978B46FEF7B0F821
:10204000002840F0B18028460294FEF73DFB284668
:102050004FF0FF31FEF74AFA2846FEF76BF90446C7
:102060000620CDE9100A284659461297FEF798F83F
:10207000002840F09F802846FEF726FB28464FF0B8
:10208000FF31FEF733FA2846FEF754F90121824664
:10209000052010AA83C228465946FEF781F8002879
:1020A00040F08E802846FEF70FFB28464FF0FF31A8
:1020B000FEF71CFA2846FEF73DF9A2B245F2F424D9
:1020C000C0F6000407465846214600F021FC1FFADE
:1020D0008AF20DF12C0A5046214600F019FCBAB2E2
:1020E00007AF3846214600F013FC05F1300446F0F6
:1020F00030012046012214230191FFF7C7FB49F06C
:1021000030092046494601221423FFF7BFFB0498FB
:10211000012240F0300B204659461423FFF7B6FB4E
:102120000598012240F03006204631461423FFF77F
:10213000ADFB10AD2046294604221423FFF7A6FB71
:102140002046514604221423FFF7A0FB20463946BF
:1021500004221423FFF79AFB20461EA10122142318
:10216000FFF794FB0698039C002808BF01240298FF
:10217000002808BF0446002000F02EF800200021AF
:1021800000F0E4F9002C03943FF4F2AE284640F24C
:102190000805C2F200052C1D8146D3464FF0280ADF
:1021A00007AE1427F7E600BFEFF3108072B600BF4A
:1021B000FEE700BFEFF3108072B600BFFEE700BF7E
:1021C000EFF3108072B600BFFEE700BF48656C6C8D
:1021D0006F0000000A00000080B50246002840F2AF
:1021E000A000C2F200004FF4806118BFFF22FDF78B
:1021F00099FF80BD2DE9F04F85B004466420FEF7BD
:102200000BFBAE208DF813004FF00A0901250DF1EC
:1022100013072046782100220123CDE90075CDF86F
:1022200008904FF00008FEF7CDFC06464FF0200A5C
:1022300020467821002201238DF813A0CDE90075F6
:10224000CDF80890FEF7BEFC06444FF0100B204678
:102250007821002201238DF813B0CDE90075CDF867
:102260000890FEF7AFFC0644B0208DF8130020461E
:10227000782100220123CDE90075CDF80890FEF702
:10228000A1FC0644C8208DF81300204678210022C6
:102290000123CDE90075CDF80890FEF793FC0644C4
:1022A00020467821002201238DF81380CDE90075A6
:1022B000CDF80890FEF786FC0644204678210022DF
:1022C00001238DF813B0CDE90075CDF80890FEF725
:1022D00079FC064440208DF8130020467821002226
:1022E0000123CDE90075CDF80890FEF76BFC06449C
:1022F00081208DF813002046782100220123CDE9AA
:102300000075CDF80890FEF75DFC0644FF208DF8BF
:1023100013002046782100220123CDE90075CDF875
:102320000890FEF74FFC0644A1208DF813002046CC
:10233000782100220123CDE90075CDF80890FEF741
:1023400041FC0644A6208DF8130020467821002287
:102350000123CDE90075CDF80890FEF733FC064463
:10236000A8208DF813002046782100220123CDE912
:102370000075CDF80890FEF725FC06443F208DF847
:1023800013002046782100220123CDE90075CDF805
:102390000890FEF717FC0644A4208DF81300204691
:1023A000782100220123CDE90075CDF80890FEF7D1
:1023B00009FC0644D3208DF8130020467821002222
:1023C0000123CDE90075CDF80890FEF7FBFB06442C
:1023D00020467821002201238DF81380CDE9007575
:1023E000CDF80890FEF7EEFB0644D5208DF81300DB
:1023F0002046782100220123CDE90075CDF8089010
:10240000FEF7E0FB0644F0208DF81300204678210B
:1024100000220123CDE90075CDF80890FEF7D2FB2C
:102420000644D9208DF8130020467821002201238C
:10243000CDE90075CDF80890FEF7C4FB06442220D4
:102440008DF813002046782100220123CDE9007584
:10245000CDF80890FEF7B6FB0644DA208DF813009D
:102460002046782100220123CDE90075CDF808909F
:10247000FEF7A8FB064412208DF8130020467821B1
:1024800000220123CDE90075CDF80890FEF79AFBF4
:102490000644DB208DF8130020467821002201231A
:1024A000CDE90075CDF80890FEF78CFB0644204678
:1024B0007821002201238DF813A0CDE90075CDF815
:1024C0000890FEF77FFB06448D208DF81300204610
:1024D000782100220123CDE90075CDF80890FEF7A0
:1024E00071FB064414208DF8130020467821002249
:1024F0000123CDE90075CDF80890FEF763FB064493
:10250000AF208DF813002046782100220123CDE969
:102510000075CDF80890FEF755FBC64211D140F288
:10252000A000C2F200004FF48061FDF702FE2046D9
:1025300000F014F840F22800C2F200000025C0F8B4
:102540000280284605B0BDE8F08F000040F2280266
:10255000C2F2000250809180704700002DE9F04FD8
:1025600085B040F2A0060446C2F200060A27012503
:102570000DF113084FF064094FF0800A4FF0000B83
:10258000ABF150008DF811000DF11100CDE90005FF
:1025900020467821002201230297FEF713FB00203A
:1025A0008DF812000DF11200CDE9000520467821CA
:1025B000002201230297FEF705FB10208DF813007F
:1025C0002046782100220123CDE900850297FEF7FD
:1025D000F9FA2046782140220123CDE9006ACDF89E
:1025E0000890FEF7EFFA0BF1010BBBF1080F06F1B3
:1025F0008006C5D105B0BDE8F08F00002DE9F04F91
:102600008BB040F22806C2F2000675885FFA81FCA2
:102610000CEB05047F2C06D8B788C1F3072E08976A
:1026200077443F2F04D900200BB0BDE8F08F00BFE6
:10263000CDE900403078B3FA83F700284FEA571706
:102640001CBF3B460120BEF1000F18BFBCF1000FBC
:102650000AD140F228000099C2F20000418001989E
:102660000BB0BDE8F08F00BF019E78400990ACF13F
:1026700001000292203E049001F003000EFB06F2DE
:10268000029E0690ACEB000040F2A00C05920022E6
:10269000C2F2000C0A90CDF81CE008E041EA0E01FD
:1026A0000CF80010DDF81CE001327245D1D008981A
:1026B0001044C1B23F29F5D805990127114436F8D5
:1026C00011A000F0070107FA01FE04998EF0FF083F
:1026D00003294FF4786101EA001905D20020069918
:1026E000002940F08E80DDE70392002208E000BF61
:1026F00041EA0E010CF802100A99721C8A4279D044
:1027000010460AFA00F12A440904D6B202F0800108
:1027100008D591B94E441CF80670012B09D147EA3F
:102720000E0108E049B94E4409991CF806700029C9
:10273000F5D107EA08010CF8061000F1010B511C55
:102740000AFA0BF7CEB23F0401F0800108D591B927
:102750004E441CF80670012B09D147EA0E0108E02F
:1027600049B94E4409991CF806700029F5D107EAC9
:1027700008010CF806100BF10106911C0AFA06F488
:10278000CFB2240401F0800108D591B94F441CF860
:102790000710012B09D141EA0E0108E049B94F4465
:1027A000099C1CF80710002CF5D101EA08010CF86F
:1027B00007100136D11C0AFA06F4CAB2240401F04B
:1027C000800109D500297FF497AF4A441CF8021014
:1027D000012B3FF48DAF09E000297FF48DAF4A440F
:1027E000099C1CF80210002C7FF482AF01EA08015A
:1027F00080E700BFDDE902620430069900293FF45A
:1028000051AF41190AFA00F41746CAB2240401F084
:10281000800109D599B94A441CF80210012B0AD14C
:1028200041EA0E0109E000BF49B94A44099C1CF87D
:102830000210002CF4D101EA08010CF802100699EC
:102840003A4601293FF42EAF411C4C190AFA01F116
:102850000904E2B204F0800108D591B94A441CF899
:102860000210012B09D141EA0E0108E049B94A449E
:10287000099C1CF80210002CF5D101EA08010CF8A3
:10288000021006993A4602293FF40CAF811C4A19FE
:102890000AFA01F10904D0B202F080010AD5002938
:1028A0003A467FF4FFAE48441CF80010012B3FF479
:1028B000F5AE0BE000293A467FF4F4AE4844099A9D
:1028C0001CF80010002A3A467FF4E8AE01EA08013D
:1028D000E6E60000F0B581B01C460378A3B11546CA
:1028E0000E46471CD8B231462A462346FFF786FEDD
:1028F00017F8011C884204D117F8013B002BF1D1D5
:102900000021084601B0F0BD0021084601B0F0BD2D
:102910000FB4084B10B504A902AA039800F01CF8E4
:10292000044602A9002000F0C1F8204610BC5DF862
:1029300014FB0000AD2A000802E008C8121F08C1FD
:10294000002AFAD170477047002001E001C1121F30
:10295000002AFBD1704700002DE9FF4F89B09B464C
:102960000446002506E025280BD05A460B999047CF
:10297000641C6D1C20780028F5D10DB02846BDE8F8
:10298000F08F0027B8460122474900E0074314F8BA
:10299000013F203B02FA03F00842F7D120782E28AD
:1029A00019D114F8010F47F004072A280ED06FF050
:1029B0002F022078A0F1300109290CD808EB8801FA
:1029C00002EB410100EB0108641CF2E70A98641C69
:1029D00050F8048B0A9020780028CED0642808D0C4
:1029E000692806D075281ED05A460B9990476D1C51
:1029F00058E00A994FF00A0901C90A91002802DA41
:102A000040422D2102E0390504D52B218DF82010FC
:102A1000012103E0F90704D02021F7E78A4608AE38
:102A20000DE00021FAE70A994FF00A0901C90A915D
:102A3000F7E74946FDF788FB303106F8011D00280D
:102A4000F7D1ADEB060000F12009780701D44FF073
:102A50000108C84502DDA8EB090000E0002080461F
:102A6000002706E008A85A46C05D0B9990476D1CE8
:102A70007F1C5745F6DB04E030205A460B999047FF
:102A80006D1CB8F10001A8F10108F5DC05E016F8AD
:102A9000010B5A460B9990476D1CB9F10001A9F141
:102AA0000109F4DC641C65E7092801000A68531C6D
:102AB0000B60107070470102000000000000000071
:102AC00001020304060708090000000001020304D4
:102AD00000000000000000000000000000000000F6
:102AE00000000000000000000000000000000000E6
:102AF000000000000000000C000C000C000C000C9A
:102B0000000C000C000C000C000C000C0000000C71
:102B1000000C0000000000000000001B001B001B58
:102B2000001B001B0000000000000000000000006F
:102B300000000000000000000000000000008019FC
:102B4000801980198019C07FC07F80190033C07F31
:102B5000C07F00330033003300330000000000006A
:102B60000000001E003F807580650074003C001E60
:102B700000078005806580658075003F001E0004A9
:102B8000000400000000007000D840D8C0D880D9F0
:102B900000730006000C801BC036C066C046C0062D
:102BA00080030000000000000000001E003F003312
:102BB00000330033001E000CC03CC066806380619F
:102BC0008063C03E801C0000000000000000000C7C
:102BD000000C000C000C000C0000000000000000C5
:102BE00000000000000000000000000000000000E5
:102BF000800000010003000600060004000C000C29
:102C0000000C000C000C000C000400060006000381
:102C100000018000002000100018000C000C0004CF
:102C20000006000600060006000600060004000C70
:102C3000000C0018001000200000000C002D003FC8
:102C4000001E003300000000000000000000000033
:102C50000000000000000000000000000000000074
:102C60000000000C000C000C000CC0FFC0FF000CAA
:102C7000000C000C000C0000000000000000000030
:102C80000000000000000000000000000000000044
:102C900000000000000000000000000C000C000418
:102CA0000004000800000000000000000000000018
:102CB000000000000000001E001E000000000000D8
:102CC0000000000000000000000000000000000004
:102CD00000000000000000000000000000000000F4
:102CE0000000000C000C00000000000000000003C9
:102CF000000300030006000600060006000C000C9E
:102D0000000C000C00180018001800000000000063
:102D10000000001E003F0033806180618061806D93
:102D2000806D8061806180610033003F001E000083
:102D30000000000000000006000E001E0036002605
:102D40000006000600060006000600060006000653
:102D500000060000000000000000001E003F80731D
:102D600080618061800100030006000C00180030C3
:102D70000060807F807F0000000000000000001CD9
:102D8000003E006300630003000E000E000380019C
:102D9000800180618073003F001E00000000000081
:102DA00000000006000E000E001E001E0016003679
:102DB00000360066807F807F000600060006000067
:102DC000000000000000007F007F006000600060E5
:102DD000006E007F80638001800180618073003F0E
:102DE000001E0000000000000000001E003F8033B5
:102DF00080610060006E007F80738061806180610F
:102E00008033003F001E0000000000000000807FB3
:102E1000807F80010003000300060006000C000C08
:102E2000000C000800180018001800000000000046
:102E30000000001E003F8063806180610021001E51
:102E4000003F8061806180618061003F001E000062
:102E5000000000000000001E003F007380618061E0
:102E600080618073803F801D800180610073003F1E
:102E7000001E000000000000000000000000000034
:102E80000000000C000C000000000000000000002A
:102E90000000000C000C000000000000000000001A
:102EA0000000000000000000000C000C000000000A
:102EB000000000000000000C000C000400040008EA
:102EC000000000000000000080008003000E0038B9
:102ED00000600038000E8003800000000000000049
:102EE0000000000000000000000000000000807FE3
:102EF000807F00000000807F807F000000000000D5
:102F000000000000000000000000000000000000C1
:102F100000400070001C000780010007001C0070CA
:102F20000040000000000000000000000000001F42
:102F3000803FC071C060C000C00180030007000E68
:102F4000000C000C0000000C000C00000000000051
:102F50000000001E003F803180718063806F806DB3
:102F6000806D806F806700600032003E001C0000B2
:102F7000000000000000000E000E001B001B001BE4
:102F8000001B80318031803F803F8031C060C06055
:102F9000C0600000000000000000007C007E0063B4
:102FA000006300630063007E007E006380618061D7
:102FB0008063007F007E0000000000000000001E13
:102FC000003F803180610060006000600060006050
:102FD000006080618031003F001E000000000000A2
:102FE0000000007C007F00638063806180618061FD
:102FF00080618061806100630063007E007C00006E
:10300000000000000000807F807F006000600060A2
:103010000060007F007F0060006000600060807FD3
:10302000807F0000000000000000807F807F006043
:10303000006000600060007F007F00600060006052
:103040000060006000600000000000000000001E42
:10305000003F8031806100600060006080638063B9
:10306000806180618031803F001E00000000000010
:103070000000806180618061806180618061807F0B
:10308000807F8061806180618061806180610000FB
:10309000000000000000003F003F000C000C000C8E
:1030A000000C000C000C000C000C000C000C003F8D
:1030B000003F00000000000000008001800180014E
:1030C0008001800180018001800180018061806138
:1030D0008073003F001E0000000000000000C06080
:1030E0008061006300660066006C0078007C00660A
:1030F0000066006380618061C06000000000000025
:10310000000000600060006000600060006000601F
:1031100000600060006000600060807F807F0000D1
:10312000000000000000C071C071C07BC07AC06A9E
:10313000C06AC06EC064C060C060C060C060C06073
:10314000C060000000000000000080718071807984
:1031500080798079806D806D806D80658067806703
:103160008067806380630000000000000000001E94
:10317000003F003380618061806180618061806197
:10318000806180610033003F001E000000000000ED
:103190000000007E007F80638061806180618063C9
:1031A000007F007E00600060006000600060000042
:1031B000000000000000001E003F003380618061BD
:1031C0008061806180618061806580670033803FBD
:1031D000401E0000000000000000007E007F8063B1
:1031E000806180618063007F007E00660063006311
:1031F00080618061C0600000000000000000000EDF
:10320000001F8031803100300038001E000780032D
:10321000806180618031003F001E000000000000DE
:103220000000C0FFC0FF000C000C000C000C000CE4
:10323000000C000C000C000C000C000C000C00003A
:103240000000000000008061806180618061806119
:103250008061806180618061806180618073003FF6
:10326000001E0000000000000000C060C060C060E0
:10327000803180318031001B001B001B001B000EC1
:10328000000E000E00040000000000000000C0C09E
:10329000C0C0C0C0C0C0C0C0C0CC804C804C805E2C
:1032A00080528052807380618061000000000000C5
:1032B0000000C0C0806080610033003B001E000C35
:1032C000000C001E001F003B80718061C0C0000028
:1032D000000000000000C0C0806180610033003346
:1032E000001E001E000C000C000C000C000C000C5A
:1032F000000C0000000000000000803F803F8001C3
:10330000000300030006000C000C00180018003039
:103310000060807F807F000000000000000F000F31
:10332000000C000C000C000C000C000C000C000C3D
:10333000000C000C000C000C000C000C000F000F27
:103340000000001800180018000C000C000C000C05
:10335000000600060006000600030003000300004C
:1033600000000000001E001E000600060006000609
:10337000000600060006000600060006000600061D
:1033800000060006001E001E0000000C000C001EBF
:1033900000120033003380618061000000000000F3
:1033A000000000000000000000000000000000001D
:1033B000000000000000000000000000000000000D
:1033C000000000000000000000000000E0FF00001E
:1033D000000000380018000C000000000000000091
:1033E00000000000000000000000000000000000DD
:1033F0000000000000000000000000000000001FAE
:10340000803F80618001801F803F80618063807F7A
:10341000C038000000000000000000600060006094
:103420000060006E007F80738061806180618061D8
:103430008073007F006E00000000000000000000AC
:10344000000000000000001E003F807380610060EB
:10345000006080618073003F001E000000000000DB
:1034600000008001800180018001801D803F807309
:1034700080618061806180618073803F801D000079
:103480000000000000000000000000000000001E1E
:10349000003F00738061807F807F00608071003F0B
:1034A000001E0000000000000000C007C00F000C5C
:1034B000000C807F807F000C000C000C000C000CC6
:1034C000000C000C000C00000000000000000000D8
:1034D00000000000801D803F8073806180618061FA
:1034E00080618073803F801D80018063007F003E8B
:1034F00000000060006000600060006F807F8071ED
:103500008061806180618061806180618061000094
:103510000000000000000006000600000000003E61
:10352000003E000600060006000600060006000633
:103530000006000000000000000600060000000079
:10354000003E003E000600060006000600060006DB
:103550000006000600060046007E003C00000060F9
:10356000006000600060806100630066006C007CA9
:103570000076006300638061C0600000000000000E
:103580000000003E003E00060006000600060006A1
:103590000006000600060006000600060006000001
:1035A000000000000000000000000000000080DDBE
:1035B000C0FFC0CEC0CCC0CCC0CCC0CCC0CCC0CC76
:1035C000C0CC00000000000000000000000000006F
:1035D0000000006F807F8071806180618061806108
:1035E0008061806180610000000000000000000038
:1035F000000000000000001E003F807380618061B9
:10360000806180618073003F001E000000000000A8
:103610000000000000000000006E007F80738061E9
:103620008061806180618073007F006E0060006057
:10363000006000600000000000000000801D803F6E
:10364000807380618061806180618073803F801DB4
:103650008001800180018001000000000000000066
:1036600000000067803F003900300030003000303B
:1036700000300030003000000000000000000000BA
:10368000000000000000001E803F80610060007F9D
:10369000803F80018061007F001E0000000000006C
:1036A00000000000000800180018007F007F0018CC
:1036B00000180018001800180018801F800F000064
:1036C0000000000000000000000000000000806119
:1036D0008061806180618061806180618063807FC2
:1036E000803D00000000000000000000000000001D
:1036F0000000C060803180318031001B001B001B46
:10370000000E000E00060000000000000000000097
:1037100000000000000080DD80DD80DD00550055E8
:103720000055007700770022002200000000000012
:103730000000000000000000000080610033003342
:10374000001E000C000C001E0033003380610000DE
:1037500000000000000000000000000080618061A7
:10376000803100330033001B001B001B000E000ED5
:10377000000E001C007C0070000000000000000033
:103780000000C07FC07F800100030006000C00180D
:103790000030C07FC07F0000000000008003800771
:1037A00000060006000600060006000E001C001CB5
:1037B000000E0006000600060006000680078003D3
:1037C00000060006000600060006000600060006C9
:1037D00000060006000600060006000600060006B9
:1037E000000600060038003C000C000C000C000C29
:1037F000000C000E00070007000E000C000C000C6F
:10380000000C000C003C003800000000000000002C
:103810000000000000008038807F004700000000AA
:103820000000000000000000000000000000000098
:103830000000000000000000000000000000000088
:103840000000000000000000000000000000000078
:103850000000000000000000000000000000000068
:10386000E003E003E003E003E003E003E003E00340
:10387000C003C003C001C001C001C001C0010000FD
:1038800000000000E003E003E0030000000000008F
:10389000000000003C1E3C1E3C1E3C1E3C1E3C1E0C
:1038A0003C1E0000000000000000000000000000BE
:1038B0000000000000000000000000000000000008
:1038C0000000000000000000CE01CE03DE039E03D6
:1038D0009C039C07FF3FFF7F3807380F780F780F56
:1038E000780EFFFFFFFFF01EF01CE01CE03CE03D07
:1038F000E03900000000000000000000FC03FE0FA3
:10390000EE1FE01EE01EE01EE01EE01FE00FE007DD
:10391000F003FC01FE01FE01FE01FE01FE01FE01BD
:10392000FE3DFC3FF00FE001E00100000000000060
:10393000033E07F78FE78EE79EE3BCE3B8E7F8E7BF
:10394000F0F7E03FC001FF03FF07F307F30FF31E9B
:10395000F33CF338F3787FF03FE000000000000014
:1039600000000000E007F80F780F781F781F781F1D
:10397000780FF00FE00F801FC37FC3FBE7F3F7F171
:10398000F7F0FFF07FF03EF87F7CFF3FEF1F000075
:103990000000000000000000E003E003E003E0039B
:1039A000E003C003C00100000000000000000000B0
:1039B0000000000000000000000000000000000007
:1039C0000000000000000000000000003F007C003C
:1039D000F001E001C003C00780078007800F000FDF
:1039E000000F000F000F000F000F800F80078007EF
:1039F000C007C003E001F0017C003F000F000000A1
:103A0000007E001FC007C003E001F001F000F000DD
:103A1000F800780078007800780078007800F800E6
:103A2000F000F000F001E001C003C007001F007EBD
:103A300000780000E003C003C001CE39FF3F7F3FA4
:103A400020037003F807780F3C1F380600000000C1
:103A50000000000000000000000000000000000066
:103A60000000000000000000000000000000000056
:103A700000000000C001C001C001C001C001C001C0
:103A8000C001FFFFFFFFC001C001C001C001C001B4
:103A9000C001000000000000000000000000000065
:103AA0000000000000000000000000000000000016
:103AB0000000000000000000000000000000E00323
:103AC000E003E003E003E001E001E001C001800366
:103AD00000000000000000000000000000000000E6
:103AE000000000000000FE3FFE3F0000000000005C
:103AF00000000000000000000000000000000000C6
:103B000000000000000000000000000000000000B5
:103B100000000000000000000000000000000000A5
:103B2000000000000000E003E003E003E003000009
:103B300000000000000000000F000F001E001E002B
:103B40003C003C0078007800F000F000E001E0016B
:103B5000C003C00380078007000F000F001E001E77
:103B6000003C003C0078007800F00000F007F80FFF
:103B70007C1F3E3E1E3C1F7C1F7C0F780F780F7809
:103B80000F780F780F780F781F7C1F7C1E3C3E3E0D
:103B90007C1FF80FF007000000000000000000008C
:103BA000F000F007F03FF03FF001F001F001F0010C
:103BB000F001F001F001F001F001F001F001F0017D
:103BC000F001F001F001FF3FFF3F000000000000A6
:103BD00000000000E00FF83F7C3C3C003E003E004F
:103BE0003E003C003C007C00F800F001E003C00710
:103BF0008007000F001E003E003CFE3FFE3F00001D
:103C00000000000000000000F00FF81F7C1C3E00C8
:103C10003E003E003C003C00F800F00FF80F7C0036
:103C20003E001E001E001E001E003E007C1CF81FF1
:103C3000E01F000000000000000000007800F80015
:103C4000F800F801F803F807F807780F781E781ED7
:103C5000783C78787878FFFFFFFF7800780078006C
:103C600078007800780000000000000000000000EC
:103C7000FC1FFC1FFC1F001E001E001E001E001E5D
:103C8000E01FF81FFC007C003E003E001E003E00CE
:103C90003E003C007C1CF81FE01F000000000000FC
:103CA00000000000FC01FE078E0F001F001E003EFA
:103CB000003C003CF83DFC3F3E7F1F7E0F3C0F3C2C
:103CC0000F3C0F3C0F3E1F1E3E1FFC0FF003000079
:103CD0000000000000000000FF3FFF3FFF3F0F001B
:103CE0001E001E003C0038007800F000F000E001EB
:103CF000E001C003C0038007800F800F000F001F8A
:103D0000001F00000000000000000000F807FC0F8A
:103D10003E1F1E1E1E3E1E3E1E1E3C1FF80FF007BD
:103D2000F80FFC1E3E3E1F3C1F7C0F7C0F7C1F3C8F
:103D30003E3FFC1FF00700000000000000000000F4
:103D4000F007F80F7C1E3E3C1E3C1F7C1F7C1F7C36
:103D50001F7C1F3C3F3EFF1FEF071F001E001E0081
:103D60003E003C00F838F03FE01F0000000000007B
:103D70000000000000000000000000000000000043
:103D8000E003E003E003E0030000000000000000A7
:103D9000000000000000E003E003E003E003000097
:103DA0000000000000000000000000000000000013
:103DB00000000000E003E003E003E0030000000077
:103DC00000000000000000000000E003E003E0034A
:103DD000E003E001E001E001C00380030000000017
:103DE000000000000000000003000F003F00FC0086
:103DF000F003C00F003F00FE003FC00FF003FC00C7
:103E00003F000F0003000000000000000000000061
:103E100000000000000000000000000000000000A2
:103E200000000000FFFFFFFF000000000000FFFF98
:103E3000FFFF000000000000000000000000000084
:103E40000000000000000000000000000000000072
:103E500000E000F8007E801FE007F8017E001F00F0
:103E60007E00F801E007801F007E00F800E00000FF
:103E70000000000000000000F01FFC3F3E381F382B
:103E80001F381E001E003C007800F000E001C00357
:103E9000C003C007C007000000000000C007C00743
:103EA000C00700000000000000000000F803FE0F43
:103EB0001E1F0F3E7F3CFF78EF79C773C7F38FF368
:103EC0008FF38FF39FF39FF3FF73FF7BF779003C32
:103ED0001C1FFC0FF80300000000000000000000A1
:103EE000000000000000E003E003F007F007F00727
:103EF000780F780F7C0E3C1E3C1E3E3CFE3FFF3F81
:103F00001F780F780FF007F007F0000000000000A6
:103F100000000000000000000000F83FFC3F3E3CB5
:103F20001E3C1E3C1E3C3E3C7C3CF03FF83F7E3C31
:103F30001F3C1F3C0F3C0F3C1F3CFE3FF83F000066
:103F40000000000000000000000000000000FF0171
:103F5000FF07871F003E003C007C00780078007857
:103F600000780078007C007C003E003F831FFF0744
:103F7000FF01000000000000000000000000000041
:103F80000000F07FFC7F7E781F781F780F780F7815
:103F90000F780F780F780F780F780F781F781E78CA
:103FA0007E78F87FE07F0000000000000000000045
:103FB000000000000000FF3FFF3F003E003E003ECB
:103FC000003E003E003EFE3FFE3F003E003E003E03
:103FD000003E003E003EFF3FFF3F000000000000AB
:103FE00000000000000000000000FF1FFF1F001E77
:103FF000001E001E001E001E001EFF1FFF1F001ED1
:10400000001E001E001E001E001E001E001E0000DE
:104010000000000000000000000000000000FE039F
:10402000FF0F871F003E007C007C007800F800F83E
:104030007FF87FF80F780F7C0F7C0F3E8F1FFF0FEC
:10404000FE0300000000000000000000000000006F
:1040500000001F7C1F7C1F7C1F7C1F7C1F7C1F7C23
:104060001F7CFF7FFF7F1F7C1F7C1F7C1F7C1F7CB2
:104070001F7C1F7C1F7C000000000000000000006F
:10408000000000000000FF3FFF3FE003E003E0030B
:10409000E003E003E003E003E003E003E003E00308
:1040A000E003E003E003FF3FFF3F000000000000EB
:1040B00000000000000000000000FC1FFC1F7C004E
:1040C0007C007C007C007C007C007C007C007C0010
:1040D0007C007C0078007800F838F03FC03F00009A
:1040E00000000000000000000000000000001F3C75
:1040F0001E3C3C3C783CF03CE03DE03FC03F803F14
:10410000C03FE03FF03DF03C783C7C3C3E3C1F3CF7
:104110000F3C000000000000000000000000000054
:104120000000003E003E003E003E003E003E003EDD
:10413000003E003E003E003E003E003E003E003E8F
:10414000003EFF3FFF3F00000000000000000000B5
:104150000000000000001FF81FFC1FFC3FFE3FFE98
:104160003FFE7FFF77FF77FFF7F7E7F7E7F3E7F328
:10417000C7F307F007F007F007F0000000000000A9
:10418000000000000000000000000F7C0F7C0F7E8C
:104190000F7F0F7F8F7F8F7FCF7FEF7BEF79FF794F
:1041A000FF78FF787F783F783F781F781F7800008E
:1041B0000000000000000000000000000000F00708
:1041C000FC1F3E3E1F7C0F780F780FF80FF80FF89A
:1041D0000FF80FF80FF80F780F781F7C3E3EFC1F8A
:1041E000F0070000000000000000000000000000D8
:1041F0000000FC3FFF3F1F3E0F3E0F3E0F3E0F3EB5
:104200001F3E3F3EFC3FF03F003E003E003E003E72
:10421000003E003E003E00000000000000000000E4
:10422000000000000000F007FC1F3E3E1F7C0F78DE
:104230000F780FF80FF80FF80FF80FF80FF80F7846
:104240000F781F7C3E3EFC1FF8077C003F000F00EC
:1042500003000000000000000000F03FFC3F7E3C37
:104260003E3C1E3C1E3C3E3C3C3CFC3CF03FE03FA8
:10427000F03DF83C7C3C3E3C1E3C1F3C0F3C0000AB
:104280000000000000000000000000000000FC072B
:10429000FE1F0E3E003C003C003C003EC01FF80FDD
:1042A000FE037F001F000F000F001F203E3CFC3F5D
:1042B000F01F0000000000000000000000000000EF
:1042C0000000FFFFFFFFE003E003E003E003E00383
:1042D000E003E003E003E003E003E003E003E003C6
:1042E000E003E003E0030000000000000000000025
:1042F0000000000000000F7C0F7C0F7C0F7C0F7C07
:104300000F7C0F7C0F7C0F7C0F7C0F7C0F7C0F7C55
:104310001E3C1E3C3E3EFC1FF0070000000000005B
:104320000000000000000000000007F007F007F8A0
:104330000F780F7C1E3C1E3C1E3E3C1E3C1F781F0F
:10434000780FF80FF007F007F007E003E003000034
:10435000000000000000000000000000000003E07A
:1043600003F003F007F0E7F3E7F3E7F3E773F77B16
:10437000F77FFF7F7F7F7F7F7E7F7E3F3E3E3E3E9B
:104380003E3E0000000000000000000000000000B1
:10439000000007F80F7C1E3E3E3E3C1FF80FF00762
:1043A000E007E003E003F007F80F7C0F7C1E3E3CC3
:1043B0001F780F780FF000000000000000000000E0
:1043C00000000000000007F807780F7C1E3C1E3E2E
:1043D0003C1F780FF80FF007E003E003E003E00371
:1043E000E003E003E003E003E0030000000000005E
:1043F00000000000000000000000FF7FFF7F0F00B2
:104400001F003E007C00F800F000E001E003C00760
:10441000800F000F001E003E007CFF7FFF7F00002A
:104420000000000000000000FF07800780078007F1
:104430008007800780078007800780078007800744
:104440008007800780078007800780078007800734
:10445000800780078007FF07FF07000000780078CB
:10446000003C003C001E001E000F000F800780076C
:10447000C003C003E001E001F000F0007800780024
:104480003C003C001E001E000F000F000700000053
:10449000F07FF000F000F000F000F000F000F0001D
:1044A000F000F000F000F000F000F000F000F0008C
:1044B000F000F000F000F000F000F000F000F07FFD
:1044C000F07F0000C000C001C001E003E003F0077E
:1044D000F0077807780F380F3C1E3C1E1E3C1E3C30
:1044E0000F380F780778000000000000000000007F
:1044F00000000000000000000000000000000000BC
:1045000000000000000000000000000000000000AB
:10451000000000000000000000000000000000009B
:104520000000FFFFFFFF000000000000F00000009F
:10453000000000000000000000000000000000007B
:10454000000000000000000000000000000000006B
:10455000000000000000000000000000000000005B
:10456000000000000000000000000000F80FFC3F09
:104570007C3C3E003E003E00FE07FE1F3E3E3E7C71
:104580003E783E7C7E7CFF3FCF1F00000000000095
:1045900000000000003C003C003C003C003C003CB3
:1045A000F83DFE3F3E3F1F3E0F3C0F3C0F3C0F3C93
:1045B0000F3C0F3C1F3C1E3C3E3FFC3FF03B0000CD
:1045C00000000000000000000000000000000000EB
:1045D00000000000FE03FF0F871F003E003E003C6E
:1045E000007C007C007C003C003E003E871FFF0FEB
:1045F000FE03000000000000000000001F001F007C
:104600001F001F001F001F00FF07FF1F3F3E1F3C32
:104610001F7C1F7C1F7C1F781F781F7C1F7C3F3CEA
:104620007F3EFF1FDF0F00000000000000000000C1
:10463000000000000000000000000000F803FC0F74
:104640003E1F1E3E1F3C1F7CFF7FFF7F007C007CC7
:10465000003C003E071FFF0FFE03000000000000AB
:1046600000000000FF01E103C003C007C007C0074E
:10467000FF7FFF7FC007C007C007C007C007C00794
:10468000C007C007C007C007C007C007C0070000B9
:10469000000000000000000000000000000000001A
:1046A00000000000EF07FF1F7F3E1F3C1F7C1F7CA8
:1046B0001F781F781F781F7C1F7C3F3C7F3EFF1FA9
:1046C000DF0F1E001E001E007C38F83F003C003C3F
:1046D000003C003C003C003CFC3DFE3F9E3F1F3F39
:1046E0001F3E1F3C1F3C1F3C1F3C1F3C1F3C1F3CF0
:1046F0001F3C1F3C1F3C00000000000000000000A9
:10470000F001F0010000000000000000E07FE07F09
:10471000E001E001E001E001E001E001E001E00191
:10472000E001E001E001E001E00100000000000024
:1047300000000000F800F800000000000000000089
:10474000F83FF83FF800F800F800F800F800F8002B
:10475000F800F800F800F800F800F800F800F80099
:10476000F800F000F071E07F003C003C003C003CB1
:10477000003C003C1F3C3E3C7C3CF83CF03DE03DB6
:10478000C03FC03FE03FF03DF83C7C3C3E3C1F3C1E
:104790001F3C00000000000000000000F07FF0015E
:1047A000F001F001F001F001F001F001F001F00181
:1047B000F001F001F001F001F001F001F001F00171
:1047C000F001F001F0010000000000000000000016
:1047D0000000000000000000000000009EF7FFFF46
:1047E000FFFFFFFFE7FBE7F9C7F1C7F1C7F1C7F12B
:1047F000C7F1C7F1C7F1C7F1C7F100000000000021
:1048000000000000000000000000000000000000A8
:10481000FC3DFE3F9E3F1F3F1F3E1F3C1F3C1F3C79
:104820001F3C1F3C1F3C1F3C1F3C1F3C1F3C00000B
:104830000000000000000000000000000000000078
:1048400000000000F007FC1F3E3E1F3C1F7C0F785D
:104850000F780F780F780F781F7C1F3C3E3EFC1FAF
:10486000F007000000000000000000000000000051
:104870000000000000000000F83DFE3F3E3F1F3EEC
:104880000F3C0F3C0F3C0F3C0F3C0F3C1F3C1E3EAF
:104890003E3FFC3FF83F003C003C003C003C003CFD
:1048A000000000000000000000000000EE07FE1FF6
:1048B0007E3E1E3C1E7C1E781E781E781E781E785A
:1048C0001E7C3E7C7E3EFE1FDE0F1E001E001E0074
:1048D0001E001E000000000000000000000000009C
:1048E0007F1FFF1FE71FC71F871F001F001F001F1D
:1048F000001F001F001F001F001F001F001F0000DF
:1049000000000000000000000000000000000000A7
:1049100000000000FC07FE1F0E1E003E003E003F90
:10492000E01FFC07FE003E001E001E003E3CFC3F58
:10493000F01F000000000000000000000000000068
:104940000000800780078007FF7FFF7F80078007C8
:10495000800780078007800780078007800780071F
:10496000C007FF03FF01000000000000000000007E
:104970000000000000000000000000001E3C1E3C83
:104980001E3C1E3C1E3C1E3C1E3C1E3C1E3C1E3C57
:104990003E3C7E3CFE3EFE1FDE0F0000000000009D
:1049A0000000000000000000000000000000000007
:1049B00007F00F780F781E3C1E3C1E3E3C1E3C1E2E
:1049C000780F780FF00FF007F007E003E003000026
:1049D00000000000000000000000000000000000D7
:1049E0000000000003F0E3F1E3F3E7F3F7F3F7F37C
:1049F000F77F777F7F7F7F7F7F7F3E3E3E3E3E3EDD
:104A00003E3E00000000000000000000000000002A
:104A100000000000000000000F7C1E3E3C3E3C1FDA
:104A2000F80FF007F007E003F007F807F80F7C1E17
:104A30003E3E1F3C1F780000000000000000000008
:104A400000000000000000000000000007F80F78E0
:104A50000F7C1E3C1E3C3C1E3C1E3C1F780FF80F7A
:104A6000F007F007E003E003C003C003C0038007C2
:104A7000800F007F00000000000000000000000028
:104A8000FF3FFF3F1F003E007C00F800F001E00305
:104A9000C007800F001F001E003CFF7FFF7F00004B
:104AA0000000000000000000FE01E003C003C0039E
:104AB000C003C003E001E001E001C001C003803F8A
:104AC000803FC003C001E001E001E001C003C0037A
:104AD000C003C003E003FE017E000000C001C0016E
:104AE000C001C001C001C001C001C001C001C001BE
:104AF000C001C001C001C001C001C001C001C001AE
:104B0000C001C001C001C001C001C001C00100005E
:104B1000C03FE003E001E001E001E001C001C003AB
:104B2000C003C001E001FE00FE00E001C001C003BF
:104B3000C003C001E001E001E001E001E003C03F8B
:104B4000003F000000000000000000000000000026
:104B500000000000000000000000073FC77FE7736F
:104B6000FFF17EF0000000000000000000000000E7
:104B70000000000000000000000000000000000035
:104B80000000000000000000000000000010001005
:104B900000100010001000100000001000000000C5
:104BA000002800280028000000000000000000008D
:104BB0000000000000240024007C00240048007C49
:104BC0000048004800000000003800540050003841
:104BD000001400540054003800100000002000545D
:104BE00000580030002800540014000800000000A5
:104BF000001000280028001000340048004800344D
:104C00000000000000100010001000000000000074
:104C1000000000000000000000080010002000203C
:104C200000200020002000200010000800200010BC
:104C30000008000800080008000800080010002014
:104C400000100038001000280000000000000000E4
:104C5000000000000000000000100010007C0010A8
:104C60000010000000000000000000000000000034
:104C70000000000000000010001000100000000004
:104C800000000000000000380000000000000000EC
:104C90000000000000000000000000000000001004
:104CA00000000000000800080010001000100010B4
:104CB00000200020000000000038004400440054A0
:104CC00000440044004400380000000000100030A0
:104CD0000050001000100010001000100000000034
:104CE0000038004400440004000800100020007C4C
:104CF0000000000000380044000400180004000414
:104D000000440038000000000008001800280028B7
:104D10000048007C0008000800000000007C004003
:104D20000040007800040004004400380000000047
:104D3000003800440040007800440044004400383B
:104D400000000000007C000400080010001000209B
:104D5000002000200000000000380044004400381B
:104D600000440044004400380000000000380044C3
:104D700000440044003C00040044003800000000EF
:104D80000000000000100000000000000000001003
:104D90000000000000000000000000100000000003
:104DA000000000100010001000000000000C003097
:104DB00000400030000C0000000000000000000077
:104DC0000000007C0000007C0000000000000000EB
:104DD00000000000006000180004001800600000DF
:104DE000000000000038004400040008001000101B
:104DF000000000100000000000380044004C005487
:104E0000005C004000400038000000000010002856
:104E1000002800280028007C004400440000000016
:104E200000780044004400780044004400440078C6
:104E300000000000003800440040004000400040F6
:104E400000440038000000000070004800440044A6
:104E5000004400440048007000000000007C004056
:104E60000040007C004000400040007C000000004A
:104E7000007C0040004000780040004000400040BE
:104E8000000000000038004400400040005C004486
:104E90000044003800000000004400440044007C4E
:104EA00000440044004400440000000000380010AA
:104EB000001000100010001000100038000000006A
:104EC000000400040004000400040004004400384E
:104ED00000000000004400480050006000500048FE
:104EE0000048004400000000004000400040004036
:104EF000004000400040007C000000000044006CC6
:104F0000006C0054004400440044004400000000D1
:104F100000440064006400540054004C004C004401
:104F200000000000003800440044004400440044F5
:104F300000440038000000000078004400440044B1
:104F400000780040004000400000000000380044AD
:104F500000440044004400440054003800040000B1
:104F600000780044004400440078004800480044B1
:104F70000000000000380044004000300008000439
:104F80000044003800000000007C001000100010F9
:104F90000010001000100010000000000044004449
:104FA0000044004400440044004400380000000075
:104FB000004400440044002800280028001000108D
:104FC0000000000000440044005400540054006CF1
:104FD00000280028000000000044002800280010DD
:104FE0000010002800280044000000000044004495
:104FF0000028002800100010001000100000000021
:10500000007C000400080010001000200040007C1C
:105010000000000000180010001000100010001028
:1050200000100010001000180020002000100010D8
:105030000010001000080008000000000030001000
:1050400000100010001000100010001000100030C0
:1050500000100028002800440000000000000000AC
:105060000000000000000000000000000000000040
:1050700000000000000000FE002000100000000002
:105080000000000000000000000000000000000020
:1050900000380044003C0044004C00340000000094
:1050A0000040004000580064004400440064005880
:1050B00000000000000000000038004400400040F4
:1050C0000044003800000000000400040034004CDC
:1050D00000440044004C00340000000000000000C8
:1050E00000380044007C004000440038000000000C
:1050F000000C0010007C00100010001000100010C8
:1051000000000000000000000034004C0044004497
:10511000004C003400040078004000400058006457
:10512000004400440044004400000000001000005F
:1051300000700010001000100010001000000000AF
:10514000001000000070001000100010001000108F
:10515000001000E000400040004800500060005097
:105160000048004400000000007000100010001013
:1051700000100010001000100000000000000000EF
:105180000078005400540054005400540000000003
:105190000000000000580064004400440044004443
:1051A00000000000000000000038004400440044FB
:1051B00000440038000000000000000000580064B7
:1051C000004400440064005800400040000000001B
:1051D0000034004C00440044004C0034000400043F
:1051E0000000000000580064004000400040004003
:1051F00000000000000000000038004400300008FB
:10520000004400380000000000200020007800204A
:105210000020002000200018000000000000000016
:105220000044004400440044004C003400000000EE
:10523000000000000044004400280028002800105E
:105240000000000000000000005400540054006CF6
:105250000028002800000000000000000044002892
:1052600000100010002800440000000000000000B2
:1052700000440044002800280010001000100060C6
:1052800000000000007C0008001000200040007CAE
:105290000000000000180010001000100020002086
:1052A0000010001000100018001000100010001076
:1052B000001000100010001000100010003000104E
:1052C000001000100008000800100010001000304E
:1052D0000000000000000074004C0000000000000E
:1052E0000000000002030405060708090A0B0C0D64
:1052F0000E0F101025750000185300080000002044
:105300002800000038290008405300082800002029
:10531000D00800004829000801000000100000002B
:105320000B120000D02A0008101A00002C380008C8
:10533000070A0000784B00080024F4000000000079
:04000005080000ED02
:00000001FF
