:020000040800F2
:100000001804002001010008E50A0008790A000828
:10001000E10A00086D010008450B0008000000001F
:10002000000000000000000000000000ED0A0008D1
:100030007101000800000000E90A0008F10A000848
:100040001B0100081B0100081B0100081B01000820
:100050001B0100081B0100081B0100081B01000810
:100060001B0100081B0100081B0100081B01000800
:100070001B0100081B0100081B0100081B010008F0
:100080001B0100081B0100081B0100081B010008E0
:100090001B0100081B0100081B0100081B010008D0
:1000A0001B0100081B0100081B0100081B010008C0
:1000B0001B0100081B010008000000001B010008D4
:1000C0001B01000800000000000000001B010008E8
:1000D000000000001B0100081B01000800000000D8
:1000E0001B0100081B0100081B010008DFF80CD0F1
:1000F00000F02AF800480047490B000818040020C7
:100100000648804706480047FEE7FEE7FEE7FEE7B1
:10011000FEE7FEE7FEE7FEE7FEE7FEE7F50A00087A
:10012000ED000008D2B201E000F8012B491EFBD21D
:1001300070470022F6E710B513460A4604461946F2
:10014000FFF7F0FF204610BD064C074D06E0E068C3
:1001500040F0010394E8070098471034AC42F6D30E
:10016000FFF7C8FFF80B0008180C0008FEE70000B6
:10017000704700002DE9F04F82B041F20002C4F256
:1001800001020E680323904208BF0223002E009351
:1001900000F0EE8040F20C4C4FF6FF7EC4F2010CF2
:1001A00000220124C1F2100E4FF0000B4FF00009A5
:1001B0004AE000BF40F60044C4F20104009DA042A2
:1001C00008BF012502F00C040F27A7402AEA070701
:1001D00005FA04F43C4343F82640D1F804A040F269
:1001E0000045C4F201055FEACA332B6854BF23EA15
:1001F000080343EA08032B606B685FEA8A3454BF44
:1002000023EA080343EA08036B605FEACA24AB6889
:1002100054BF23EA080343EA08035FEA8A24AB6079
:10022000DCF800304FF0010454BF23EA080343EA2E
:100230000803CCF800300E680BF1010B36FA0BF313
:1002400002F1040200F0948004FA0BF816EA080F99
:10025000F1D04E68764511DC122E55D8DFE806F055
:10026000340A4448545454545454545454545454D4
:10027000544C5000D1F80C9046E000BF4FF6FF738D
:10028000C1F221039E420FDC0023C1F211039E4202
:100290001AD00023C1F212039E4215D00023C1F2EE
:1002A00021039E4210D02FE00023C1F222039E4280
:1002B0000AD00023C1F231039E4205D00023C1F2CF
:1002C00032039E4220D100BF8B684BB1012B14BF7B
:1002D000C0F81480C0F810804FF0080914E000BF87
:1002E0004FF0040910E000BFCB6803F108090BE0F0
:1002F0004FF0000908E000BFCB6803F1040903E0F8
:10030000CB6803F10C0900BF13460546BBF1080F8B
:1003100024BF203B04352E680F279F40BE4309FAB7
:1003200003F333432B60CB79DB067FF584AF41F2D7
:100330001804C4F2020423684FEA9B0643F0010349
:100340002360236840F6000403F001030193019B3E
:1003500040F20043C4F20103A3F57E7353F826A0D4
:10036000C4F20104A0427FF425AF00252AE700BFB4
:1003700002B0BDE8F08F0000002A08BF0904016147
:100380007047000040F21000C2F2000000687047A1
:1003900040F2000040F21001C2F20000C2F200017F
:1003A00000780A68104408607047000080B542F287
:1003B0000000C4F20200016841F010010160032056
:1003C00000F07AF8002000F005F800F027F800208F
:1003D00080BD000070B540F20006C2F2000640F297
:1003E00008013278C2F200014FF47A730968B3FB56
:1003F000F2F20446B1FBF2F1084600F027FB0F2CA5
:100400004FF0010508D838B94FF0FF3021460022DF
:10041000002500F025F87460284670BD82B041F2D6
:100420001800C4F202000168042241F001010160D9
:10043000016801F0010101910199416841F0805189
:100440004160406800F08050009000980420C4F2A1
:100450000100016862F31A61016002B07047000098
:1004600010B54EF60C5CCEF2000CDCF80030C3F395
:10047000022E8EF00704042C28BF0424BEF10303CF
:100480004FF0FF3E0EFA04F438BF0023A143994019
:100490000EFA03F39A43114300F00F02043A624448
:1004A00009010C3200F16043B0F1FF3FC8BF03F512
:1004B0006442117010BD00004EF60C51CEF20001E6
:1004C0000A684FF6FF031A4060F30A2242F0806088
:1004D00040F0FD70086070472DE9F04381B00028BE
:1004E00000F0858042F20008C4F202080446D8F801
:1004F00000000D4600F0070088420CD2D8F800003A
:1005000020F007002843C8F80000D8F8000000F0E9
:100510000700A8426BD1206841F204098107C4F2A8
:10052000020917D5410705D5D9F8001041F4E0615B
:10053000C9F80010010705D5D9F8001041F4605141
:10054000C9F80010D9F80010A26821F0F001114399
:10055000C9F80010C00741D1D8F8000000F007002A
:10056000A8420CD9D8F8000020F007002843C8F8AA
:100570000000D8F8000000F00700A84237D120683A
:10058000410707D5D9F80010E26821F4E061114372
:10059000C9F80010000708D5D9F80000216920F437
:1005A000605040EAC100C9F80000D9F8002002F00C
:1005B0000C00082841F20020C0F27A0050D140F629
:1005C000E633C2F38341C0F60003595CD2033BD447
:1005D00040F60010C0F23D00484341E06068022848
:1005E0000AD001282AD159F8041C890308D4012013
:1005F00001B0BDE8F08300BF59F8041C8901F6D5AD
:10060000D9F8001021F003010843C9F80000FFF7F2
:10061000B9FE064641F28837D9F80000616800F05B
:100620000C00B0EB810F97D0FFF7ACFE801BB842F7
:10063000F2D9032001B0BDE8F08300BF59F8041CD3
:100640008907D4D5DCE700BFD9F8002040F6D433C1
:10065000C2F34042C0F600039A5C4843B0FBF2F09C
:10066000D9F8001040F6D632C1F30311C0F60002EB
:10067000515C40F2080220FA01F140F20400C2F29B
:1006800000000068C2F200021160FFF7A3FE002024
:1006900001B0BDE8F08300002DE9F04182B00028F0
:1006A00068D00446007841F20006C007C4F2020692
:1006B00025D0706800F00C0004281BD0706800F092
:1006C0000C00082802D17068C00313D460680028A9
:1006D00000F06881B0F5A02F00F07C81B0F5803F7C
:1006E00000F07C81306820F480303060306820F485
:1006F000802076E13068800301D56068D0B320782F
:10070000800718D5706810F00C0F07D0706800F0E3
:100710000C0008286ED17068C0036BD43068800765
:1007200002D52069012825D13068616920F0F800E0
:1007300040EAC1003060207800071FD420784007CD
:1007400032D4E56995B1706800F00C00082840F0DB
:100750008F80012D0ED07068216A00F480328A42A9
:1007600008D1616A00F47010884203D1002002B001
:10077000BDE8F081012002B0BDE8F081A069002849
:1007800062D00020C4F242200121C0F88014FFF79B
:10079000F9FD0546706A800700F18C80FFF7F2FDD5
:1007A000401B0228F6D92AE1F06910F0805808D1E0
:1007B000F06940F08050F061F06900F080500090E6
:1007C000009847F20007C4F200073868C00529D432
:1007D000386840F480703860FFF7D4FD054600BFEC
:1007E0003868C0051ED4FFF7CDFD401B6428F7D93B
:1007F00005E100BF2069002840F20000C4F2422059
:1008000000F0828001210160FFF7BCFD054600BFBA
:10081000306880073FF588AFFFF7B4FD401B022822
:10082000F6D9ECE0E068002800F08080052800F0B0
:100830009780012800F09880306A20F00100306233
:10084000306A20F0040092E00020C4F2422000212F
:10085000C0F88014FFF796FD054600BF706A800758
:100860007FF56CAFFFF78EFD401B0228F6D9C6E07E
:100870000027C4F2422700203866FFF783FD022DCF
:1008800005460BD13068800140F1BE80FFF77AFD4C
:10089000401B02284FF00300F4D968E7306880015C
:1008A0007FF564AFFFF76EFD401B02284FF0030099
:1008B000F4D95CE740F20800C2F20000006844F698
:1008C000D351C1F26201A0FB0101480A019000BFAF
:1008D00000BF0198411E002801913FF42FAF00BFD7
:1008E0000198411E002801913FF428AF00BF0198F4
:1008F000411E002801913FF421AF00BF0198411E25
:1009000000280191E4D119E700210160FFF73AFDC9
:10091000054600BF306880077FF50DAFFFF732FD59
:10092000401B02284FF00300F4D920E7306A20F082
:1009300001003062306A20F004003062FFF722FDCF
:10094000054641F2883700BF306A800720D5FFF79F
:1009500019FD401BB8424FF00300F5D907E700BF6F
:10096000306A40F004003062306A40F001003062CA
:10097000FFF708FD054641F2883700BF306A80075F
:1009800006D4FFF7FFFC401BB842F7D937E000BFA1
:10099000B8F1000F7FF4D5AEF06920F08050F0611F
:1009A000CFE600BF306820F480303060306820F43B
:1009B00080203060FFF7E6FC054600BF306880030A
:1009C0007FF59DAEFFF7DEFC401B64284FF003006F
:1009D000F4D9CCE6306840F480203060306840F4D0
:1009E00080303060FFF7CEFC054600BF30688003E2
:1009F0003FF585AEFFF7C6FC401B6428F6D90320FF
:100A000002B0BDE8F08100BF206AB0F5803F05D19B
:100A10007168A26821F40031114371607168626AE3
:100A200021F4741110430843706001203866FFF709
:100A3000A9FC0446306880013FF598AEFFF7A2FCA0
:100A4000001B02284FF00300F4D990E6411E00205D
:100A5000B0EB116F1CBF012070474EF21002CEF2B6
:100A6000000251604EF62351CEF20001F0230B70CC
:100A70000721906011607047FEE7000070B584B0F8
:100A800041F21800C4F20200016840F6004441F04F
:100A9000200101600168C4F2010401F0200100910D
:100AA00000990168012241F00801016000684FF4DB
:100AB000805100F008000090009820464FF48055C7
:100AC0000126FFF759FC002002900220039069469E
:100AD0002046CDE90056FFF74DFB04B070BD000085
:100AE000FEE70000FEE700007047000070470000CE
:100AF000FFF74EBC41F20000C4F202000168002280
:100B000041F0010101604168CFF6FF0211404160F0
:100B100001684FF6FF72CFF6F6621140016001687E
:100B200021F480210160416821F4FE0141604FF40D
:100B30001F0181604EF60850CEF200004FF00061B8
:100B400001607047FEE7000090B0FFF72FFC06AC95
:100B5000201D2421FFF7EDFA0220069001200A90C3
:100B600010200B90002520460D95FFF795FD28B12C
:100B7000EFF3108072B600BFFEE700BF0F20CDE993
:100B8000010501A80021CDE903550595FFF7A4FC57
:100B900020B1EFF3108072B6FEE700BFFFF76EFFE3
:100BA00040F60044C4F2010420464FF48051002274
:100BB000FFF7E2FBF8E702E008C8121F08C1002AAD
:100BC000FAD170477047002001E001C1121F002ACE
:100BD000FBD170470102000000000000000001028C
:100BE00003040607080902030405060708090A0B9F
:100BF0000C0D0E0F10100000180C00080000002053
:100C000010000000B60B0008280C0008100000209F
:100C100008040000C60B00080100000010000000DE
:080C20000024F40000000000B4
:04000005080000ED02
:00000001FF
