:020000040800F2
:1000000088040020010100086D160008651600082C
:100010006916000899010008CD16000800000000CC
:10002000000000000000000000000000751600083D
:100030009D010008000000007116000879160008F4
:100040001B0100081B0100081B0100081B01000820
:100050001B0100081B0100081B0100081B01000810
:100060001B0100081B0100081B0100081B01000800
:100070001B0100081B0100081B0100081B010008F0
:100080001B0100081B0100081B0100081B010008E0
:100090001B0100081B0100081B0100081B010008D0
:1000A0001B0100081B0100081B0100081B010008C0
:1000B0001B0100081B010008000000001B010008D4
:1000C0001B01000800000000000000001B010008E8
:1000D000000000001B0100081B01000800000000D8
:1000E0001B0100081B0100081B010008DFF80CD0F1
:1000F00000F040F800480047D116000888040020AE
:100100000648804706480047FEE7FEE7FEE7FEE7B1
:10011000FEE7FEE7FEE7FEE7FEE7FEE77D160008E6
:10012000ED000008D2B201E000F8012B491EFBD21D
:1001300070470022F6E710B513460A4604461946F2
:10014000FFF7F0FF204610BD30B50B4601460020FA
:100150002022012409E021FA02F59D4205D303FA89
:1001600002F5491B04FA02F52844151EA2F101020A
:10017000F1DC30BD064C074D06E0E06840F00103BD
:1001800094E8070098471034AC42F6D3FFF7B2FF6B
:10019000301A0008501A0008FEE7000070470000FF
:1001A00010B581B00022009290F82420012A03D1DA
:1001B0000221084601B010BD4B680122062B80F8D1
:1001C000242015D8026803EB8303A3F1050E1F2337
:1001D000D2F834C003FA0EF40B682CEA040C03FACC
:1001E0000EF444EA0C045463092B17D937E000BF1E
:1001F00002680C2B20D803EB8303A3F123041F23F5
:10020000D2F830C003FA04FE0B682CEA0E0C03FA95
:1002100004F444EA0C041463092B20D8D2F810C06B
:1002200003EB4303072489689C402CEA04049940AB
:1002300021431161002136E003EB8303A3F1410464
:100240001F23D2F82CC003FA04FE0B682CEA0E0C14
:1002500003FA04F444EA0C04D462092BDED903EB5C
:100260004304D2F80CC0A4F11E0E0724896804FAD6
:100270000EF42CEA040401FA0EF1214323F00104E8
:10028000102CD1600ED142F20841C4F20101A1F15B
:100290000804A2420ED0816A41F02001816201214E
:1002A00001E000BF0021002280F82420084601B0B0
:1002B00010BD00BF0A68120230D40A68102B42F445
:1002C00000020A602CD140F20801C2F20001096864
:1002D0004DF68362C4F21B32A1FB0212910C01EBBA
:1002E0008101490000910099E1B100990139009123
:1002F0000099C9B10099013900910099B1B10099F3
:1003000001390091009999B1009901390091009942
:1003100000294FF00001E8D1C5E700BF0021C2E786
:100320000021C0E70021BEE70021BCE70021BAE7B9
:100330000021B8E7806A70470068C06C7047000011
:10034000B0B5002800F0A0800446806A20B1206883
:100350008168C9070BD031E00020E06284F82400F6
:10036000204600F093F820688168C90726D1A16A69
:10037000C9063DD4A16A41F2021291430231A16241
:10038000E169D4E9013241EA030C531EB3FA83F365
:100390005D091346B2F5807F18BF2B02217D257BB6
:1003A00001294CEA450132D145B3A56A45F0200543
:1003B000A562E56A45F00105E56228E0816821F063
:1003C0000101816000F040FB054600BF20688168A4
:1003D000C907CCD000F038FB401B0328F6D3A06A35
:1003E00040F01000A062E06A40F00100E062A06A04
:1003F000A06A40F01000A0620120B0BDD4F818C07F
:100400004EF60005CFF6FF7505EB4C352B434568DE
:10041000B2F5807F25F4694543EA050343608368AC
:100420004FF2FD75CFF6E17503EA050343EA0103D8
:10043000836001D0012A07D122690023CFF6F0732F
:1004400003EB025201E000BF0022C36A23F47003F1
:100450001A43C262806840F6FE62CFF61F721040F7
:10046000884207D10020E062A16A012262F3010103
:10047000A162B0BDA06A40F0100020F00200A062AE
:10048000E06A40F00100E0620120B0BD80B586B0B6
:10049000014640F60040C4F20100096800F5C05270
:1004A00091424FF00001CDE9041101D006B080BDAA
:1004B00041F21801C4F202010A6842F400720A60B3
:1004C0000A6802F400720192019A0A6842F0080276
:1004D0000A60096801F00801019101990221029165
:1004E0000321039102A900F0ADF906B080BD000020
:1004F0002DE9F04182B000270D460446019700F037
:10050000A3FA21688A68D20544D406464868C00523
:1005100003D4C86A10F4700F46D040F20800C2F24B
:100520000000076842F292480220C1F2492800F018
:1005300035FB216844F624130A69B7FBF0F0C2F2D8
:1005400092431A4206D1CA6844F62413C0F29203B9
:100550001A4249D00A6912EA080F07D1CA6842F262
:100560009243C0F249031A4200F084800A6949F2BA
:100570004923C0F224031A424FF0FC0242D1CF6853
:100580001F4208BF5422019B02FB00F7BB423ED32F
:1005900079E000BFA06A40F02000A06284F82470D7
:1005A000012002B0BDE8F081086880076BD4002DFF
:1005B00055D0681C12D10868800764D40868800789
:1005C0005CBF08685FEA80705DD408688007F2D578
:1005D00059E000BF21680868800754D400F034FA5D
:1005E000801BA842F6D93AE00A6912EA080F4FF0D8
:1005F000290207D1CB6842F29247C0F249073B4239
:1006000008BF1422019B02FB00F7BB423BD235B36B
:10061000681C1FD10198013001900198B84232D274
:100620000198013001900198B8422CD20198013014
:1006300001900198B84226D20198013001900198AA
:10064000B842E7D31FE000BF019801300190019844
:10065000B84217D200F0F8F9801BA842F4D9A06A7A
:1006600040F00400A062002084F82400032002B0BF
:10067000BDE8F0815422019B02FB00F7BB42C6D3C8
:1006800001E000BF21686FF012000860A06A40F42A
:100690000070A062886800F46020B0F5602F01D17E
:1006A000207B18B1002002B0BDE8F081A06A20F4E0
:1006B0008070A062A06AC004F4D4A06A40F0010077
:1006C000A062002002B0BDE8F0810000B0B582B0A9
:1006D000044690F82400012802D1022002B0B0BDE7
:1006E000012084F824000020019020688168C90757
:1006F00042D1816841F00101816040F20800C2F2FC
:10070000000000684DF68361C4F21B31A0FB0101BB
:10071000880C01900198A0B10198013801900198CE
:1007200078B1019801380190019850B101980138D1
:100730000190019828B10198013801900198002892
:10074000EAD100F081F9054620688168C90713D114
:1007500000F07AF9401B0228F6D9A06A40F0100098
:10076000A062E06A40F00100E062002084F824000A
:10077000012002B0B0BD00BFA26A42F2044140F2C3
:100780000133C4F201019A4302F5807301F57F72CF
:100790009042A3622ED0A36A23F48013A36243681D
:1007A0005B0504D5A36A012565F30D33A362A56A31
:1007B0000023ED044FF0000544BFE56A25F006056F
:1007C000E56284F824306FF002030360836803F469
:1007D0006023B3F5602F05D1904217D1096811F459
:1007E000702F13D0816841F480118160002002B025
:1007F000B0BD00BF0B6813F4702FCCD0A36A43F4D4
:100800008013A3620B685B05CCD4D0E7816841F408
:10081000A0018160002002B0B0BD0000B0B5044668
:1008200000F012F9054640F20000C2F20000007824
:10083000611C18BF044400BF00F006F9401BA04231
:10084000FAD3B0BD2DE9F04F82B041F20002C4F2FC
:1008500001020E680323904208BF0223002E00937A
:1008600000F0EE8040F20C4C4FF6FF7EC4F2010C1B
:1008700000220124C1F2100E4FF0000B4FF00009CE
:100880004AE000BF40F60044C4F20104009DA042CB
:1008900008BF012502F00C040F27A7402AEA07072A
:1008A00005FA04F43C4343F82640D1F804A040F292
:1008B0000045C4F201055FEACA332B6854BF23EA3E
:1008C000080343EA08032B606B685FEA8A3454BF6D
:1008D00023EA080343EA08036B605FEACA24AB68B3
:1008E00054BF23EA080343EA08035FEA8A24AB60A3
:1008F000DCF800304FF0010454BF23EA080343EA58
:100900000803CCF800300E680BF1010B36FA0BF33C
:1009100002F1040200F0948004FA0BF816EA080FC2
:10092000F1D04E68764511DC122E55D8DFE806F07E
:10093000340A4448545454545454545454545454FD
:10094000544C5000D1F80C9046E000BF4FF6FF73B6
:10095000C1F221039E420FDC0023C1F211039E422B
:100960001AD00023C1F212039E4215D00023C1F217
:1009700021039E4210D02FE00023C1F222039E42A9
:100980000AD00023C1F231039E4205D00023C1F2F8
:1009900032039E4220D100BF8B684BB1012B14BFA4
:1009A000C0F81480C0F810804FF0080914E000BFB0
:1009B0004FF0040910E000BFCB6803F108090BE019
:1009C0004FF0000908E000BFCB6803F1040903E021
:1009D000CB6803F10C0900BF13460546BBF1080FB5
:1009E00024BF203B04352E680F279F40BE4309FAE1
:1009F00003F333432B60CB79DB067FF584AF41F201
:100A00001804C4F2020423684FEA9B0643F0010372
:100A10002360236840F6000403F001030193019B67
:100A200040F20043C4F20103A3F57E7353F826A0FD
:100A3000C4F20104A0427FF425AF00252AE700BFDD
:100A400002B0BDE8F08F000040F28000C2F200006A
:100A50000068704740F2000040F28001C2F20000DE
:100A6000C2F2000100780A68104408607047000074
:100A700080B542F20000C4F20200016841F01001AA
:100A80000160032000F07AF8002000F005F800F083
:100A900027F8002080BD000070B540F20006C2F2C9
:100AA000000640F208013278C2F200014FF47A7376
:100AB0000968B3FBF2F20446B1FBF2F1084600F01C
:100AC0004DFC0F2C4FF0010508D838B94FF0FF301E
:100AD00021460022002500F025F87460284670BDEC
:100AE00082B041F21800C4F202000168042241F011
:100AF00001010160016801F0010101910199416862
:100B000041F080514160406800F0805000900098B2
:100B10000420C4F20100016862F31A61016002B0AE
:100B20007047000010B54EF60C5CCEF2000CDCF8FD
:100B30000030C3F3022E8EF00704042C28BF0424D7
:100B4000BEF103034FF0FF3E0EFA04F438BF00235A
:100B5000A14399400EFA03F39A43114300F00F02A8
:100B6000043A624409010C3200F16043B0F1FF3FE6
:100B7000C8BF03F56442117010BD00004EF60C5161
:100B8000CEF200010A684FF6FF031A4060F30A2212
:100B900042F0806040F0FD700860704780B5012829
:100BA00018D0022836D0102832D141F20401C4F204
:100BB00002010A6851F8040CC00129D5C2F3834030
:100BC0002DA3185CD2033DD440F60012C0F23D02C2
:100BD000504343E041F20400C4F20200C16940F214
:100BE00002320A40B2F5817F04BF4FF4004080BD5D
:100BF00001F44071B1F5407F1CD0B1F5007F07D101
:100C0000006A49F64041800701EAE07080BD00BFFC
:100C1000002080BD00F0B4F941F20401C4F20201E9
:100C200009680222C1F3813102EB4101B0FBF1F00E
:100C300080BD00BF50F8040C4FF22441800301EA4C
:100C4000E07080BD0A6810A3C2F340429A5C41F292
:100C50000023C0F27A03B3FBF2F250430968490261
:100C600048BF80BD4AF6AB214000CAF6AA21A0FBCE
:100C70000101480880BD00BF0203040506070809FA
:100C80000A0B0C0D0E0F1010010200002DE9F041AF
:100C900082B00446007841F21C06C007C4F2020686
:100CA0004AD0306810F0805808D1306840F0805049
:100CB0003060306800F080500190019847F20007E2
:100CC000C4F200073868C00512D4386840F4807058
:100CD0003860FFF7B9FE05463868C00508D4FFF74D
:100CE000B3FE401B6428F7D9032002B0BDE8F081B1
:100CF000706810F4407012D0616801F4407188424D
:100D00000DD0706840F24042C4F24222012320F428
:100D1000407113600023C007136071602AD17068AE
:100D2000616820F440700843B8F1000F706003D18F
:100D3000306820F0805030602068810707D556F871
:100D4000181CA26821F44041114346F8181CC00643
:100D500004D4002002B0BDE8F08100BF56F8180CA2
:100D6000E16820F48000084346F8180C002002B027
:100D7000BDE8F081FFF768FE054641F2883700BF05
:100D800070688007CBD4FFF75FFE401BB8424FF07E
:100D90000300F5D9EBE700002DE9F04381B000280E
:100DA00000F0858042F20008C4F202080446D8F838
:100DB00000000D4600F0070088420CD2D8F8000071
:100DC00020F007002843C8F80000D8F8000000F021
:100DD0000700A8426BD1206841F204098107C4F2E0
:100DE000020917D5410705D5D9F8001041F4E06193
:100DF000C9F80010010705D5D9F8001041F4605179
:100E0000C9F80010D9F80010A26821F0F0011143D0
:100E1000C9F80010C00741D1D8F8000000F0070061
:100E2000A8420CD9D8F8000020F007002843C8F8E1
:100E30000000D8F8000000F00700A84237D1206871
:100E4000410707D5D9F80010E26821F4E0611143A9
:100E5000C9F80010000708D5D9F80000216920F46E
:100E6000605040EAC100C9F80000D9F8002002F043
:100E70000C00082841F20020C0F27A0050D141F65F
:100E80002023C2F38341C0F60003595CD2033BD454
:100E900040F60010C0F23D00484341E0606802287F
:100EA0000AD001282AD159F8041C890308D401204A
:100EB00001B0BDE8F08300BF59F8041C8901F6D5E4
:100EC000D9F8001021F003010843C9F80000FFF72A
:100ED000BBFD064641F28837D9F80000616800F092
:100EE0000C00B0EB810F97D0FFF7AEFD801BB8422E
:100EF000F2D9032001B0BDE8F08300BF59F8041C0B
:100F00008907D4D5DCE700BFD9F8002041F60623D5
:100F1000C2F34042C0F600039A5C4843B0FBF2F0D3
:100F2000D9F8001041F60822C1F30311C0F60002FF
:100F3000515C40F2080220FA01F140F20400C2F2D2
:100F400000000068C2F200021160FFF7A5FD00205A
:100F500001B0BDE8F083000040F2080041F2040156
:100F6000C2F20000C4F202010068096841F61822CA
:100F7000C1F30221C0F60002515CC8407047000076
:100F800040F2080041F20401C2F20000C4F2020182
:100F90000068096841F61822C1F3C221C0F60002B8
:100FA000515CC840704700002DE9F04182B0002834
:100FB00068D00446007841F20006C007C4F2020679
:100FC00025D0706800F00C0004281BD0706800F079
:100FD0000C00082802D17068C00313D46068002890
:100FE00000F06881B0F5A02F00F07C81B0F5803F63
:100FF00000F07C81306820F480303060306820F46C
:10100000802076E13068800301D56068D0B3207815
:10101000800718D5706810F00C0F07D0706800F0CA
:101020000C0008286ED17068C0036BD4306880074C
:1010300002D52069012825D13068616920F0F800C7
:1010400040EAC1003060207800071FD420784007B4
:1010500032D4E56995B1706800F00C00082840F0C2
:101060008F80012D0ED07068216A00F480328A4290
:1010700008D1616A00F47010884203D1002002B0E8
:10108000BDE8F081012002B0BDE8F081A069002830
:1010900062D00020C4F242200121C0F88014FFF782
:1010A000D3FC0546706A800700F18C80FFF7CCFC0A
:1010B000401B0228F6D92AE1F06910F0805808D1C7
:1010C000F06940F08050F061F06900F080500090CD
:1010D000009847F20007C4F200073868C00529D419
:1010E000386840F480703860FFF7AEFC054600BFFA
:1010F0003868C0051ED4FFF7A7FC401B6428F7D949
:1011000005E100BF2069002840F20000C4F242203F
:1011100000F0828001210160FFF796FC054600BFC8
:10112000306880073FF588AFFFF78EFC401B022830
:10113000F6D9ECE0E068002800F08080052800F097
:101140009780012800F09880306A20F0010030621A
:10115000306A20F0040092E00020C4F24220002116
:10116000C0F88014FFF770FC054600BF706A800766
:101170007FF56CAFFFF768FC401B0228F6D9C6E08C
:101180000027C4F2422700203866FFF75DFC022DDD
:1011900005460BD13068800140F1BE80FFF754FC5A
:1011A000401B02284FF00300F4D968E73068800143
:1011B0007FF564AFFFF748FC401B02284FF00300A7
:1011C000F4D95CE740F20800C2F20000006844F67F
:1011D000D351C1F26201A0FB0101480A019000BF96
:1011E00000BF0198411E002801913FF42FAF00BFBE
:1011F0000198411E002801913FF428AF00BF0198DB
:10120000411E002801913FF421AF00BF0198411E0B
:1012100000280191E4D119E700210160FFF714FCD7
:10122000054600BF306880077FF50DAFFFF70CFC67
:10123000401B02284FF00300F4D920E7306A20F069
:1012400001003062306A20F004003062FFF7FCFBDE
:10125000054641F2883700BF306A800720D5FFF786
:10126000F3FB401BB8424FF00300F5D907E700BF7E
:10127000306A40F004003062306A40F001003062B1
:10128000FFF7E2FB054641F2883700BF306A80076E
:1012900006D4FFF7D9FB401BB842F7D937E000BFAF
:1012A000B8F1000F7FF4D5AEF06920F08050F06106
:1012B000CFE600BF306820F480303060306820F422
:1012C00080203060FFF7C0FB054600BF3068800318
:1012D0007FF59DAEFFF7B8FB401B64284FF003007D
:1012E000F4D9CCE6306840F480203060306840F4B7
:1012F00080303060FFF7A8FB054600BF30688003F0
:101300003FF585AEFFF7A0FB401B6428F6D903200C
:1013100002B0BDE8F08100BF206AB0F5803F05D182
:101320007168A26821F40031114371607168626ACA
:1013300021F4741110430843706001203866FFF7F0
:1013400083FB0446306880013FF598AEFFF77CFBD5
:10135000001B02284FF00300F4D990E6411E002044
:10136000B0EB116F1CBF012070474EF21002CEF29D
:10137000000251604EF62351CEF20001F0230B70B3
:101380000721906011607047002804BF012070475A
:1013900010B5044690F8390028B9002084F83800C8
:1013A000204600F05FF8242084F839002068D4E952
:1013B0000212C36823F40053C360036923F440534B
:1013C0001A430261D4E904231143C268194341F26C
:1013D0000C639A431143C1604169A26921F44071D1
:1013E000114343F60002C4F201029042416103D06E
:1013F000FFF7B2FD02E000BFFFF7C2FD62681921EE
:1014000048439100B0FBF1F048F21F51C5F2EB11D7
:10141000A0FB01235A096FF0630302FB0300322390
:1014200003EB0010A0FB0101F02303EA5113206835
:1014300003EB0212C1F3431111448160016921F4ED
:1014400090410161416921F02A014161C16841F483
:101450000051C16000202021E06384F8391084F835
:101460003A1010BD70B586B040F60004C4F2010415
:101470000068A4F5444100268842049602D006B0D4
:1014800070BD00BF41F21800C4F20200416802AD15
:1014900041F400314160416801F40031019101994A
:1014A000016841F0040101600068294600F0040071
:1014B00001900198042002900220039003200590DF
:1014C0002046FFF7BFF90820CDE90206204629464D
:1014D0000496FFF7B7F906B070BD00002DE9F041A2
:1014E000044690F8390020280ED10F4600294FF00D
:1014F000010000F0B4801646002A08BFBDE8F08164
:1015000094F83800012803D10220BDE8F08100BF23
:10151000012084F838000020E06321201D4684F873
:101520003900FFF791FAA684E684E18C064600298B
:1015300060D005F1010805E017F8011B4160E18C5E
:10154000002958D0E08C0138E0842068A168026846
:10155000B1F5805F02F080011ED179B9B8F1000FBA
:101560002CD0002D6AD000BFFFF76EFA811B2068D7
:10157000A94263D801680906F6D500BF39886FF320
:101580005F2141602169002914BF01370237E18CD6
:101590000029D7D12FE000BF0029CDD1B8F1000F2D
:1015A0001AD0002D4AD000BFFFF74EFA811B2068E9
:1015B000A94243D801680906F6D5BDE701680906C6
:1015C000DCD4016809065CBF01685FEA0161D5D41B
:1015D00001680906F2D5D1E701680906ACD40168B3
:1015E00009065CBF01685FEA0161A5D401680906CC
:1015F000F2D5A1E72068016849061AD4F5B1691C43
:101600000ED10168490614D4016849065CBF01681F
:101610005FEA41610DD401684906F2D509E000BFD7
:10162000FFF712FA811B2068A94207D8006840061C
:10163000F6D5202084F8390000200DE0C16821F49F
:10164000D071C160416921F001014161202084F81D
:10165000390084F83A000320002184F83810BDE8EE
:10166000F0810000FEE70000FEE70000FEE700005A
:101670007047000070470000FFF7ECB941F200002E
:10168000C4F202000168002241F0010101604168DA
:10169000CFF6FF021140416001684FF6FF72CFF6AE
:1016A000F66211400160016821F480210160416807
:1016B00021F4FE0141604FF41F0181604EF6085095
:1016C000CEF200004FF0006101607047FEE70000BD
:1016D00094B0FFF7CDF90AAC201D2421FEF729FDB7
:1016E00002200A9001200E90102000250F90204625
:1016F0000495CDE902551195FFF756FC20B1EFF3A3
:10170000108072B6FEE700BF0F20CDE9050505A8E1
:101710000021CDE907550995FFF73EFB20B1EFF316
:10172000108072B6FEE700BF02200190002401A8DD
:101730000394FFF7ABFA28B1EFF3108072B600BF45
:10174000FEE700BF41F21800C4F20200016844F253
:10175000004541F0200101600168C4F2000501F07C
:1017600020010A910A990168012641F004010160F3
:1017700001684FF4602201F004010A910A9901689E
:1017800041F008010160006805F5604100F00800C3
:101790000A900A9840F21000C2F200000673047525
:1017A000C261C0E9001484600661FEF7C9FD28B17A
:1017B000EFF3108072B600BFFEE700BF40F21004E6
:1017C0000920C2F20004CDE90A0600260AA9204633
:1017D0000C96FEF7E5FC28B1EFF3108072B600BF5F
:1017E000FEE700BF204640F8305F4FF4E1310C22A5
:1017F000C0E90116C0E90366C0E90526C661FFF726
:10180000C3FD28B1EFF3108072B600BFFEE700BF42
:1018100012A50AAE04F1300712E000BF2046FEF721
:101820008BFD82B23046294600F01AF83846314620
:1018300004220523FFF752FE4FF44870FEF7EEFF37
:101840002046FEF743FF20463221FEF751FE204698
:10185000FEF770FD8005E1D40020E2E72575000069
:101860000FB4084B10B504A902AA039800F01CF8A5
:10187000044602A9002000F0C1F8204610BC5DF823
:1018800014FB0000FD19000802E008C8121F08C17F
:10189000002AFAD170477047002001E001C1121FF1
:1018A000002AFBD1704700002DE9FF4F89B09B460D
:1018B0000446002506E025280BD05A460B99904790
:1018C000641C6D1C20780028F5D10DB02846BDE8B9
:1018D000F08F0027B8460122474900E0074314F87B
:1018E000013F203B02FA03F00842F7D120782E286E
:1018F00019D114F8010F47F004072A280ED06FF011
:101900002F022078A0F1300109290CD808EB8801BA
:1019100002EB410100EB0108641CF2E70A98641C29
:1019200050F8048B0A9020780028CED0642808D084
:10193000692806D075281ED05A460B9990476D1C11
:1019400058E00A994FF00A0901C90A91002802DA01
:1019500040422D2102E0390504D52B218DF82010BD
:10196000012103E0F90704D02021F7E78A4608AEF9
:101970000DE00021FAE70A994FF00A0901C90A911E
:10198000F7E74946FEF7E0FB303106F8011D002875
:10199000F7D1ADEB060000F12009780701D44FF034
:1019A0000108C84502DDA8EB090000E000208046E0
:1019B000002706E008A85A46C05D0B9990476D1CA9
:1019C0007F1C5745F6DB04E030205A460B999047C0
:1019D0006D1CB8F10001A8F10108F5DC05E016F86E
:1019E000010B5A460B9990476D1CB9F10001A9F102
:1019F0000109F4DC641C65E7092801000A68531C2E
:101A00000B60107070470102000000000000000031
:101A10000102030406070809000000000102030494
:101A200002030405060708090A0B0C0D0E0F10101F
:101A3000501A00080000002010000000881800085C
:101A4000601A0008100000207804000098180008B0
:101A500001000000100000000024F400000000005D
:04000005080000ED02
:00000001FF
